:0C0000000C94C4000C9400000C94F90057
:10000C000C9400000C9400000C9400000C94000064
:10001C000C9400000C9400000C9400000C94000054
:10002C000C9400000C9400000C9400000C94000044
:10003C000C9400000C9400000C9400000C94000034
:10004C000C9400000C94000060019A0130313233A2
:10005C003435363738394142434445462057656C70
:10006C00636F6D6520746F20746865206F6E6C69AA
:10007C006E65206C616220636C61737365732064C0
:10008C00756520746F20436F726F6E6120646973A5
:10009C00656173652E0030303030303030303030A8
:1000AC003030303030300048616469732041686D05
:1000BC00616469616E0A39363232363133005370FD
:1000CC006565643A3F3F28302D353072290A00456A
:1000DC00450054696D653A3F3F28302D39397329F5
:1000EC000A0057656967743A3F3F28302D39394605
:1000FC00290A0054656D703A3F3F2832302D383054
:10010C0043290A0054484520454E440080C0010054
:10011C002D4E414E00494E46000004000400540090
:10012C003A006001680011009A01A2001000190247
:10013C0058001700AB01B3001100C201CA00030044
:10014C00D301DB001000D601DE000300E601DB006A
:10015C001100E901EE000300FA01DB001100FD01C2
:10016C00FF0003000E02DB00080011021001020068
:10017C0030021801010037021A010000F894EE2732
:10018C00ECBBF1E0FBBFEBBFE5BF8DE0A2E0BB2712
:10019C00ED938A95E9F780E094E0A0E6ED93019762
:1001AC00E9F7E6E2F1E085919591009761F0A59170
:1001BC00B59105901590BF01F00105900D92019736
:1001CC00E1F7FB01F0CFEFE5EDBFE4E0EEBFC0E6F9
:1001DC00D1E00C94F100D9D178944ED052D075D096
:1001EC00BED0C7D0FFCF0A921A92FA926A937A9332
:1001FC008A939A93AA93BA93EA93FA93EFB7EA93F2
:10020C00E0912E02E03051F1E1E0E0932D02E0911B
:10021C002D02E030F1F0E4E0E0932B02A0912B02F0
:10022C00A830B0F40E949003A0912C02A43048F4A2
:10023C000E949C0319F40E94B10303C00E94C603E0
:10024C00F3CFE0912D02E03019F00E94CC03E6CF01
:10025C00DECFE0E0E0932E020E94D203E991EFBFE3
:10026C00F991E991B991A9919991899179916991B2
:10027C00F990199009901895ABEAB1E00E942F0300
:10028C0049C0E0E0E0932B02D2010E946F03A091E1
:10029C002B02B0E0EA17FB07B8F0A4E6B0E00E942E
:1002AC000704A9D17A926A92E0912B02F0E0E40D56
:1002BC00F51DFA93EA93A0E10E947B03D3010E94FF
:1002CC002F030E94CC03E0CF29C0E1E0E0932D0284
:1002DC00E0912D02E030F1F0E4E0E0932B02A091EC
:1002EC002B02A830B0F40E949003A0912C02A430F1
:1002FC0048F40E949C0319F40E94B10303C00E94AD
:10030C00C603F3CFE0912D02E03019F00E94CC032C
:10031C00E6CFDECFA8EEB3E00E9407046CD10895BF
:10032C00E4E0E0932B02A0912B02A830B8F40E94D9
:10033C009003A0912C02A43070F40E949C0341F411
:10034C000E94D603A08165D10E94D603E081089556
:10035C000E94C603EECF0E94CC03E5CFE1CFE1E0D3
:10036C00E0932E02EFEFE8BBE0912E02E030E1F7D4
:10037C00089541D1E1E0E0932D02E0912D02E030AF
:10038C0041F139D1A2ECB1E064D1882499240E94C6
:10039C00E503A0912F02A63449F0F4010E94EA0370
:1003AC004F010E94D2030E94E503F3CF0024801476
:1003BC0090042CF0E2E3F0E0E815F90534F41BD1DD
:1003CC00A3EDB1E00E94F60303C0E0E0E0932D0240
:1003DC00D4CF0E94D203E1E0E0932D02E0912D02F4
:1003EC00E03041F108D1A6EDB1E033D1AA24BB2411
:1003FC000E94E503A0912F02A63449F0F5010E945A
:10040C00EA035F010E94D2030E94E503F3CF0024AC
:10041C00A014B0042CF0E3E6F0E0EA15FB0534F48C
:10042C00EAD0A6EEB1E00E94F60303C0E0E0E09350
:10043C002D02D4CF0E94D203E1E0E0932D02E09193
:10044C002D02E03041F1D7D0A9EEB1E002D1CC249D
:10045C00DD240E94E503A0912F02A63449F0F60199
:10046C000E94EA036F010E94D2030E94E503F3CFBE
:10047C000024C014D0042CF0E3E6F0E0EC15FD05EC
:10048C0034F4B9D0AAEFB1E00E94F60303C0E0E067
:10049C00E0932D02D4CF0E94D203E1E0E0932D0231
:1004AC00E0912D02E030B1F1A6D0ADEFB1E0D1D0AA
:1004BC00E0E0E0932902E0932A020E94E503A09178
:1004CC002F02A63479F0E0912902F0912A020E94C1
:1004DC00EA03E0932902F0932A020E94D2030E94BD
:1004EC00E503EDCFA0912902B0912A02549744F074
:1004FC00A0912902B0912A02A135E0E0BE0734F0A8
:10050C007AD0AEE0B2E00E94F60303C0E0E0E093E4
:10051C002D02C6CF0E94D2036ED0A1E1B2E099D0D9
:10052C000895EFEFEABBE0E0EBBBE0EFE7BBE8BB25
:10053C00E1E8E4BBE0E0E5BBE1BBE2BB0895E0E051
:10054C00E3BFE2BFECBFEFBDEEBDEDBDECBDE7BD63
:10055C00E6BDEBBDEABDE9BDE8BDE2BDE5BDE4BD70
:10056C00E3BDE9BFEBB7E068EBBFECE0E5BFE0E073
:10057C00E4BFE0E8EABFE0E0EAB9E0E8E8B9E0E0CF
:10058C00E0BFE6B9EDB9E6BF0895CBDFD8DFA0E157
:10059C0071D00895AA93EBB3EF70AE2FE881E07F92
:1005AC00EA2BEBBB8DE08A95F1F7DA9A8DE08A9510
:1005BC00F1F7DA988DE08A95F1F789C0AA93A881B2
:1005CC00E9DFE881E295E883A881E4DF85E88A9594
:1005DC00F1F77DC0AA93E881F0E0E05DFD4FE0818A
:1005EC00A981AE0FEBDFE981E0933402E881E0935F
:1005FC00350222960895A2E00E94F903ACE0DEDFFA
:10060C00A1E00E94F903E0E0E0933502E0933402AC
:10061C000895AA93A881AA3031F0E0913602A091F6
:10062C003402AE1760F0E0E0EA93A0913502AF5FC0
:10063C00A0933502CFDFA881AA3009F448C0E0911D
:10064C003402EF5FE0933402D89AA881B7DFD898D0
:10065C003EC0BA93AA931A93A981BA81ED91A9834A
:10066C00BA831E2FE03019F0A12FD3DFF5CF1881FC
:10067C0023960895AA93EAB3E06FEABBD29AD09A74
:10068C00D19ADA98D898D998E881E0933602E05854
:10069C00E0933202E881E054E0933302A4E1B0E04D
:1006AC000E9407040E94FF030E94FF030E94FF03A5
:1006BC00A0E270DF88EC90E00197F1F7A8E27EDF12
:1006CC00A4E07CDFA5E87ADFA6E078DF94DF219652
:1006DC000895BA93AA93A991B991EE27FF276D912A
:1006EC00662311F03196FBCF0895AA937991E99185
:1006FC00F991A991B991CD01772351F07A95619136
:10070C006D936623C9F7772319F07A956D93FBCF18
:10071C00FC010895E0E0E8BBE0912B02A1E00E940F
:10072C001504E8BBE0E0E0932C02089516B2E091CA
:10073C002C02A1E0B0E00E941D04A12DB0E0EA2340
:10074C00FB23BF01E0912C02A1E0B0E00E941D044C
:10075C00E617F7070895E0912B02F0E034970E941A
:10076C002604DF01E0912C02F0E0EA0FFB1FE75EAC
:10077C00FD4FA0810E940F03E0E0E0932D0208954D
:10078C00E0912C02EF5FE0932C020895E0912B0294
:10079C00EF5FE0932B020895A8EEB3E00C940704EE
:1007AC00E0912B02F0E034970E942604DF01E091E7
:1007BC002C02F0E0EA0FFB1FE75EFD4F08950E944C
:1007CC009601E0932F020895AAE0B0E00E94330452
:1007DC00DF01E0912F02F0E0F097EA0FFB1F089584
:1007EC000E942F03D9CF0E94E402A3E0B0E00C9446
:1007FC000704A0E30E94D00288EC90E00197F1F787
:10080C000895109639F080ED97E00197F1F7A895CF
:10081C001197C9F70895F195E195F0400895EE23ED
:10082C000E2EEA2F19F0EE0F0A94E9F70895EE2335
:10083C000E2EFD0121F0EE0FFF1F0A94E1F7089533
:10084C00EE0FFF1FEE0FFF1F0895FA9FF02DEB9F89
:10085C00F00DEA9FE02DF10D089504D0F6DF0EF4B3
:10086C00DADF0895E894F7FF02C0D5DF6894B7FF8C
:10087C0006C0A095B095119600F8039400FA08955F
:00000001FF
