:0C0000000C9484060C9400000C9400008A
:10000C000C9400000C9400000C9400000C94000064
:10001C000C9400000C94BF070C9400000C9400008E
:10002C000C9400000C9400000C9400000C94000044
:10003C000C9400000C9400000C9400000C94000034
:10004C000C9400000C9400000507206000000000D8
:10005C000000005F00000007000700147F147F14ED
:10006C00242A7F2A12231308646236495522500031
:10007C0005030000001C2241000041221C00082A3C
:10008C001C2A0808083E0808005030000008080820
:10009C000808003030000020100804023E51494589
:1000AC003E00427F400042615149462141454B315F
:1000BC001814127F1027454545393C4A49493001EF
:1000CC00710905033649494936064949291E003646
:1000DC003600000056360000000814224114141497
:1000EC0014144122140800020151090632497941C5
:1000FC003E7E1111117E7F494949363E41414122D4
:10010C007F4141221C7F494949417F090901013E38
:10011C00414151327F0808087F00417F4100204057
:10012C00413F017F081422417F404040407F020440
:10013C00027F7F0408107F3E4141413E7F0909093F
:10014C00063E4151215E7F091929464649494931EC
:10015C0001017F01013F4040403F1F2040201F7F95
:10016C002018207F6314081463030478040361517E
:10017C0049454300007F4141020408102041417F62
:10018C00000004020102044040404040000102040F
:10019C000020545454787F48444438384444442014
:1001AC00384444487F3854545418087E09010208D6
:1001BC001454543C7F0804047800447D40002040D3
:1001CC00443D00007F10284400417F40007C04180F
:1001DC0004787C0804047838444444387C1414149F
:1001EC0008081414187C7C0804040848545454203F
:1001FC00043F4440203C4040207C1C2040201C3CC0
:10020C004030403C44281028440C5050503C44642E
:10021C00544C44000836410000007F000000413679
:10022C00080002010204027F4141417F81003F002E
:10023C0000000000000000000000000000000000B2
:10024C0000000000000000000000000000000000A2
:10025C000000000000000000000000000000FFFF94
:10026C00FE3E3E6ECC0C1C1C38F8F0F87C1F0F03C5
:10027C0001070F1E3CF8F8FC8C0E0607771F0F07C2
:10028C00BFFFF880808080C00000000000000000EC
:10029C000000000000000000000000000000000052
:1002AC000000000000000000000000000000000042
:1002BC000000000000000000000000000000000032
:1002CC000000000000000000000000000000000022
:1002DC0000000000000000C08080C0C0C0C0E0E092
:1002EC00FFFFF0E0E0E1E3C0C0809FFFFFC0000033
:1002FC000000F0C0000000FFFFFFF0F83C1E0E07EE
:10030C0007070707030303FFFFFC30303030F0F022
:10031C00F0F0703000000000000000000000000051
:10032C0000000000000000000000000000000000C1
:10033C0000000000000000000000000000000000B1
:10034C0000000000000000000000000000000000A1
:10035C0000000000000000000003879FFFF9E1810E
:10036C0000000000002041C18183838FDFFFFFFF6D
:10037C00FEFCFCFFFFFEFCFCFFFFFFFBF0F0FC8C27
:10038C0086C3C1E0F0F87C7E7F3330383A33397F56
:10039C007F67E1C0C0C0000000000000000000004A
:1003AC000000000000000000000000000000000041
:1003BC000000000000000000000000000000000031
:1003CC000000000000000000000000000000000021
:1003DC000000004060F0F8FCFE77333321210181EE
:1003EC0083C7CEDCFCF8F8787878F9FFFFFFFFFFC5
:1003FC00FFFFFFFFFFFFFFFFFFFFFFFFFFFFFFFF01
:10040C00FFFFFBDBCDCC84848480C0C0C0E0E0F077
:10041C0070383E7FE3C1C080000000000000000087
:10042C0000000000000000000000000000000000C0
:10043C0000000000000000000000000000000000B0
:10044C0000000000000000000000000000000000A0
:10045C000000000000000000010303C7E7FE3E1F80
:10046C000F030301012030101818180F9FFFFFFF16
:10047C00FFFFFFFFFFFFFFFFFFFFFFFFFFFFFFFF80
:10048C00FFFF9F1F19333323030307070F1F3D790A
:10049C00F0E0F038381F0F0F0707020000000000D3
:1004AC000000000000000000000000000000000040
:1004BC000000000000000000000000000000000030
:1004CC000000000000000000000000000000000020
:1004DC000000000000000000080C0E0F1F1D1C186F
:1004EC001898F8F838181818181C1CCEFFFFFF0FB6
:1004FC00030307C7FF3F0F0F0F1FFFFFFF07071F68
:10050C003143070F1F3E7EFCF8B83030783838384E
:10051C007CFCDD0F0F0E0C00000000000000000042
:10052C0000000000000000000000000000000000BF
:10053C0000000000000000000000000000000000AF
:10054C00000000000000000000000000000000009F
:10055C00000000000000000000000000000000008F
:10056C000080FFFFE1E0F0FCEEE1E0F07FFFFFFF39
:10057C00C000000003000080C0E0FC1F3FFFFCE057
:10058C00C080000000000000E3FFFF7E6061E3E636
:10059C00ECF8FFFF0000000000000000000000006D
:1005AC00000000000000000000000000000000003F
:1005BC00000000000000000000000000000000002F
:1005CC00000000000000000000000000000000001F
:1005DC00000000000000000000000000000000000F
:1005EC0000000301010100000000000000000003F6
:1005FC001F7F7E3C3C1E0E0F0F1F3D3870767C71AA
:10060C007B3F0F070E0E1C3C7F7F0F01000000008C
:10061C0000000000000000000000000000000000CE
:10062C0000000000000000000000000000000000BE
:10063C0000000000000000008A00530000000000D1
:10064C00000000000000000000000000000000009E
:10065C00000000000000000000000000000000008E
:10066C00000000000000000000000000000000007E
:10067C0000000000000000000080808000000000EE
:10068C00000000000000C040C0C0000000000000DE
:10069C000080C0C0C08000F0F8FC0000000000002A
:1006AC00000000000000000000000000000000003E
:1006BC0000000000008080800000000000000000AE
:1006CC00000000000000000000000000000000001E
:1006DC00000000000000000000000000000000000E
:1006EC0000000000000000000000000000000000FE
:1006FC0000000000000000000000000000000000EE
:10070C000000070F0F0F0700000000000C3E7C7864
:10071C007878787878383C3C78787F7F38383839F6
:10072C0008053F7F78787878787878787878787852
:10073C00783E78783E78783F000000000000070F84
:10074C000F0F070000000000000000000000000078
:10075C00000000000000000000000000000000008D
:10076C00000000000000000000000000000000007D
:10077C00000000000000000000000000000000006D
:10078C00000000000000000000000000000000005D
:100C2C0000000000000000000000000103070F1F7F
:100C3C003F7FFF001027E80364000A00010000104A
:100C4C0000011000010014000A0001006001FF0007
:100C5C0000000000E700E70000000000FF00FF00BC
:100C6C0003000100CC00CC0001000300FF00FF00DA
:100C7C0000000000E700E70000000000FF00FF009C
:100C8C0003000100CC00CC0001000300FF00202079
:100C9C003A20203A20200025643A25643A25642025
:100CAC0020200036003300390031320001002D4E77
:100CBC00414E00494E46000004000A00520C01004F
:100CCC009101560C090060019A0C02009301580C1A
:100CDC0002006901A10C02006B01AF0C02006D0156
:100CEC00B10C02006F01B30C03007101B50C3F0095
:100CFC0095015A0C0100D801B80C0000F894EE27AD
:100D0C00ECBBF1E0FBBFEBBFE5BF8DE0A2E0BB2786
:100D1C00ED938A95E9F780E094E0A0E6ED930197D6
:100D2C00E9F7E4ECFCE085919591009761F0A591D1
:100D3C00B59105901590BF01F00105900D920197AA
:100D4C00E1F7FB01F0CFEFE5EDBFE4E0EEBFC0E66D
:100D5C00D1E00C94B10636D0F1D1A8EBBBE00E94E7
:100D6C005A15F6D1AAE0B0E0A1D1FCCFFFCFE0E05C
:100D7C00EABBEBBBE7BBE8BBE4BBE5BBE1BBE2BB5F
:100D8C0008952697E4E5F0E0E883F983E0E0EA8350
:100D9C00EB83EC83ED83DE010E9431090C94320A63
:100DAC00E0E0EFBDE4E0EEBDE5E8EDBDEEEEECBD60
:100DBC00E0E0E7BDE6BDEBBDEABDE9BDE8BDE4E0C2
:100DCC00E9BF0895D4DFDDDF08950E94BA13E7EA86
:100DDC00F7EE6EE87CE30E945A160C94B909BA93AC
:100DEC00AA93E881F981309769F40E94BF13A0E0BF
:100DFC00B0E088EE91E40E94D513A0E0B0E088EE5C
:100E0C0091E438C0A881B981119769F40E94BF138D
:100E1C00A0E0B0E088EC91E40E94D513A0E0B0E033
:100E2C0088EC91E427C0A881B981129781F5E0E2A2
:100E3C00EA93EFE1EA93EC81FD810E94F2130E94A8
:100E4C00EA10A0E0B0E080EA91E40E945A16A0E01B
:100E5C00B0E080E092E40E940A160E949715EA9393
:100E6C00ED81FE810E94F2130E947211A0E0B0E0AD
:100E7C0080EA91E40E945A16A0E0B0E088EF91E479
:100E8C000E9401140E949715AE2F0E94BD0D0C9468
:100E9C00B9090E9495090E940614E4E4F6E0FA935D
:100EAC00EA93A0E00E94640DBA92AA92A0E0B0E08E
:100EBC0096DFDA92CA92A1E0B0E091DFE091910165
:100ECC00F0919201FA93EA93A2E0B0E088DFE0910E
:100EDC009301F0919401FA93EA93E3EAFCE0FA931C
:100EEC00EA93E0919101F09192010E940A14F601AB
:100EFC000E940A14F5010E940A148CE00E94EC1264
:100F0C006096E6E4EA93EEE1EA93A0919301B09146
:100F1C0094010E944F0D0E940614A9E6B1E00E94B4
:100F2C004F0DE0E2EA93E2E3EA93ABE6B1E00E9414
:100F3C004F0DE2E3EA93E0E2EA93ADE6B1E00E9402
:100F4C004F0DE4E0EA93E0E2EA93AFE6B1E00E94F1
:100F5C004F0DEBE1EA93E3E0EA93A1E7B1E00E94E5
:100F6C004F0DE0E2EA93EFE1EA93AEE10E949810B4
:100F7C0008950A921A92FA926A937A938A939A93A0
:100F8C00AA93BA93EA93FA93EFB7EA93E5E8EDBD27
:100F9C00EEEEECBDF50131965F01ECE3F0E0EA1505
:100FAC00FB05D9F4AA24BB24F60131966F01ECE3BE
:100FBC00F0E0EC15FD0589F4CC24DD24A1E9B1E0C9
:100FCC000E940F14A0919101B09192011C9729F4E9
:100FDC00E0E0E0939101E09392015BDFE991EFBFD8
:100FEC00F991E991B991A991999189917991699125
:100FFC00F990199009901895BA93AA93AC81BD8178
:10100C00EA81FB81EA1BFB0BDF01E881F981AE175A
:10101C00BF0724F4E0E0F0E00C94320AE1E0F0E0E9
:10102C000C94320ABA93AA93E881F981309721F48F
:10103C00E0E0F0E00C943D0CA881B981119721F40B
:10104C00E2E0F0E00C943D0CA881B981129721F4F8
:10105C00E4E0F0E00C943D0CA881B981139721F4E5
:10106C00E8E0F0E00C943D0CA881B981149721F4D0
:10107C00E0E1F0E00C943D0CA881B981159721F4C6
:10108C00E0E2F0E00C943D0CA881B981169721F4B4
:10109C00E0E4F0E00C943D0CA881B981179721F4A1
:1010AC00E0E8F0E00C943D0C0C943D0CBA93AA9340
:1010BC0088249924E881F9818E169F06ECF5442446
:1010CC005524E0E1F0E04E165F0694F53201F20192
:1010DC0070966E167F0644F55A924A927A926A92EC
:1010EC00A8E0B0E089DFE03011F4979801C0979A3E
:1010FC00F301E419F509A7E0B0E00E946917DF01DC
:10110C0091DFEBBBF301A5E9B1E0EE0FFF1FAE0FD2
:10111C00BF1FEC91E8BBA3E0B0E00E945A15F301AD
:10112C0031963F013197D3CFF20131962F01C9CFC0
:10113C00F40131964F01BECF0C943D0C0E94061465
:10114C00E8E3F2E0FA93EA93A0E00E94640D0895BC
:10115C0027DE78949EDE08950000909A0000089592
:10116C0090989498959808951A93F6DF13B39098E5
:10117C00E12F19910895AA931A93E0E0E4BB919A98
:10118C009298E981EF5F1E2F10FF02C0949A01C064
:10119C00949811FF02C0959A01C09598E5DFE0780C
:1011AC00E9F7188164C3AA93A981E5DF0E9415149D
:1011BC005EC3E091D601EA93E091D501EF73E06450
:1011CC00AE2FF1DFE091D601EA93E091D701E86B05
:1011DC00AE2FE9DF0895AA93E981E093D501E2955A
:1011EC00EF70E695E695E093D601E881E093D701A0
:1011FC00E0DF3DC3A091D501AF5FA093D501A0382E
:10120C0018F0E0E0E093D501E091D501EF7331F4F3
:10121C00E091D501EA93A091D701DDDF0895AA935F
:10122C00A091D601A8DF929A0E94151421960895D8
:10123C00A091D601A0DFE0E0E4BB919A929A94DFF2
:10124C000895AA93E981EA93E9810E941E14F0DFC4
:10125C00B0DFEEDF0CC3BA93AA931A93889A899ADB
:10126C008A9A8B9A939A8C9A8D9A7ADF9398A4E6A1
:10127C00B0E00E945A15939A10E0123040F41A9381
:10128C00AFE391DF1A931395A0EC8DDFF6CFE1E07D
:10129C00E0937401E0E0E0937501E981FA81309705
:1012AC00A9F0A981BA810E948117E0937801F0938B
:1012BC00790112960E948117E0938D01F0938E01B3
:1012CC00A981BA8114960E9481170AC0E0E0F0E06F
:1012DC00E0937801F0937901E0938D01F0938E0106
:1012EC00E0938F01F0939001E1E0E0937A01E093B9
:1012FC007B01E0937C01EFEFE0937D01E1E0E09373
:10130C008401E5E8F1E0FA93EA93EFEFEA93A8E0C1
:10131C00B0E00E94201303D0E1E0188119C40E94B0
:10132C00D21700E030E0E0917501E03009F00FEFEA
:10133C00383078F4E0E0EA93A32F3F5F4CDF10E005
:10134C00A12F1F5FA03820F4A02F0E942414F8CFE7
:10135C00EFCFE0E0EA93A0E03EDFE0E0EA93A0E02C
:10136C00F9D30E94D91724960895AA931A930A9335
:10137C00AC81A03818F4AB81A03418F01981088125
:10138C009BC3EC81EA93AC815CDF1E2F12DFEB81F7
:10139C00E770A1E00E941D170E2FEA81E03011F0DA
:1013AC00102B03C0E02FE0951E23A12F38DF1981ED
:1013BC00088182C3AA93A981A03818F4A881A0340B
:1013CC0010F0E0E054C2E981EA93A9813ADF1E2EC5
:1013DC00E881E770A1E00E941D17E12111F0E1E026
:1013EC0001C0E0E044C2AA931A93ED81EA93AD8167
:1013FC0028DF1E2FDEDEE981E73011F0E83039F40A
:10140C00EB81EA93AA810E945413EB8308C0E3306A
:10141C0021F4EB81E095EB8302C0E03021F4EA810A
:10142C00E0951E2302C0E23029F4EA81AB81EA2365
:10143C001E2B0EC0E13029F4EA81AB81EA231E2772
:10144C0007C0E43029F4EA81E095AB81EA2B1E2336
:10145C00A12F0E942414188126960895AA932397ED
:10146C000E94D017A889A03848F4AF85A03430F476
:10147C00AE85A03019F0AD85A03009F4C8C1EE8559
:10148C00E887A889BB27EE85F0E0AE0FBF1FA13817
:10149C00E0E0BE0720F0A889E0E8EA1BEE872D8586
:1014AC00AF85BB27ED85F0E0AE0FBF1FA134E0E0A8
:1014BC00BE0720F0AF85E0E4EA1BED87A985A630D6
:1014CC0009F05BC0EC85E13009F4A1C1E33039F4DB
:1014DC00E0918F01F0919001309709F498C1088543
:1014EC00ED85E695E695E6953E2FE22FE77019F42B
:1014FC00AD852A17E9F0A02FBB27E32FF0E00E945F
:10150C003C17AA85BB850E942814269526952695FE
:10151C00532F5F935F5FE22FAF91EA1748F0102FC4
:10152C00E12F1150E03019F00E942D14F9CFF1CFBA
:10153C00AE850A1711F1EE85AA85BB85F0E00E94F5
:10154C002814ED85E77009F03F5F20E02F932F5FA3
:10155C00E32FAF91AE1788F41E851F931F5FE02F0A
:10156C00AF91AE1718F40E942D14F7CFEE85AE8113
:10157C00BF81F0E00E942814E9CFEF85E7703E2F81
:10158C00ED85E03009F443C1EA85FB85EE83FF83EA
:10159C0010E00889303009F065C0AD85A83008F43A
:1015AC005CC0E985E03011F0E33009F402C0E730AB
:1015BC0009F402C0E83009F402C0E63009F402C0B4
:1015CC00E93009F402C0EA3021F40A93E8890E9458
:1015DC001E141F931F5FEE85AF91AE17B8F5A9854A
:1015EC00A63061F425DEE5DD0E943A14FA93EA9305
:1015FC001FDEAE2F0E949B13FDDD27C0E985E9306D
:10160C0011F450E00EC0EA3011F45FEF0AC00E94F2
:10161C003A140E9443145E2FE985E73011F0E8304C
:10162C0021F40E9449145E2F06C0E33011F450954A
:10163C0002C0E03021F4A52F0E94241406C00E94A1
:10164C004D14EFEFEA93AD85CEDEC3CFEF85E85FA7
:10165C00EF87ED85E850ED87D1C05D8520E0E0E0B7
:10166C00ED877AC0E32FAD85AE0FA93020F42D8520
:10167C00E0E0ED8703C0E8E0E31B2E2F3A93A22FA6
:10168C000E9449134E2FE985E630F1F41F931F5F3A
:10169C00EE85AF91AE17B8F40E945314AE2FE32F22
:1016AC000E9425170E945A14E32FA42F0E9425177D
:1016BC00E095E1215E2B0E943A14FA93EA93A52F50
:1016CC000E949B13E3CF2CC0E93011F450E003C00F
:1016DC00EA30A9F45FEF0E944914AE2FE32F0E9469
:1016EC001D175E2F1F931F5FEE85AF91AE1730F461
:1016FC000E944D144A93A0E076DEF4CF11C01F93E4
:10170C001F5FEE85AF91AE1758F40E946514AE2F93
:10171C00E32F0E941D17EA934A93AD8564DEEFCF49
:10172C00ED85E03009F473C0AD85A83028F4ED8563
:10173C00E21B5E2FE0E003C0532FED85E850ED87F0
:10174C0010E0EF85E85FEF87E8E0E31B2E2F0889B8
:10175C00EA85FB85EE83FF83E52FF0E0EA5CF34F2F
:10176C004491E985E630F1F41F931F5FEE85AF914C
:10177C00AE17B8F40E945314AE2FE22F0E941D171F
:10178C000E945A14E22FA42F0E941D17E095E1210C
:10179C005E2B0E943A14FA93EA93A52F0E949B1396
:1017AC00E3CF2CC0E93011F450E003C0EA30A9F4C7
:1017BC005FEF0E944914AE2FE22F0E9425175E2F77
:1017CC001F931F5FEE85AF91AE1730F40E944D143E
:1017DC004A93A0E008DEF4CF11C01F931F5FEE8583
:1017EC00AF91AE1758F40E946514AE2FE22F0E94F1
:1017FC002517EA934A93AD85F6DDEFCFE885AA85E8
:10180C00BB85F0E0EA0FFB1FEA87FB87B9CE0E948D
:10181C00D717619608950E9472141CF0E0E0F0E076
:10182C0026C0A881B981A038E0E0BE071CF0EFE724
:10183C00F0E01DC0E881F9811AC00E9472141CF0FE
:10184C00E0E0F0E014C0A881B981A034E0E0BE076C
:10185C001CF0EFE3F0E00BC0E881F98108C0AA931B
:10186C00E981EA93E981EA93A09174017EDD2296E5
:10187C000895AA931A93AA81A03818F4A981A034C8
:10188C0030F0E0E0F0E060E070E0188161C1E981E7
:10189C00E7701E2FE981E695E695E695E983103011
:1018AC0011F0EF5FE983AA81BB2788279927E9818B
:1018BC00FF27662777270E944417EC5FFF4F6F4F77
:1018CC007F4F188145C1BA93AA9323970E9479142C
:1018DC008F01002E012A19F4E0E0F0E05FC00E94B5
:1018EC0080140F820E9480140E820E94801408863D
:1018FC00EB85A885EA1718F4E0E0F0E04FC0F8019A
:10190C000F5F1F4F5491A885BB27EE27A50FBE1F55
:10191C00EB85F0E0EA17FB0718F0E0E0F0E03EC0E2
:10192C00EE81E695E695E6954E2FEE81E77009F08F
:10193C004F5FEF81E030A1F0A985BA85EC93A885C3
:10194C00EB85EA1BF0E0DF01EF81F0E00E943C1731
:10195C00DF01E42FF0E00E943C17E00FF11F1EC0E6
:10196C009801E52FF0E00E0F1F1FA885AF5FA88729
:10197C00A150EB85AE1760F4F9012F5F3F4FA49196
:10198C00B0E0E42FF0E00E943C170E0F1F1FEDCFCC
:10199C00F901E491A985BA85EC93F8010E94D71757
:1019AC002C960895E0E0E0937601A0917701BB2797
:1019BC000E948514F0E0AE0FBF1FE0917B01F0E0B8
:1019CC00AE0FBF1F3ADFE09377010895AA932197DA
:1019DC000E947914309709F457C0AF81AA3009F4EA
:1019EC004FC0EF81EA93DE0117966DDFAF013097A0
:1019FC0019F40E94D71737C3E0917A01AE81EA0F30
:101A0C003E2FA0917601BB270E948C140138E0E098
:101A1C001E0718F0032F1127C5DFE0917601EA931A
:101A2C00E0917701EA93E885EA930E948514EA93A2
:101A3C00E1E0EA935A934A93A7E010DDE091760136
:101A4C00AE81EA0FEA93E0917701EA93E0917A0193
:101A5C00EA930E9485140E949114E0917601EA9316
:101A6C00A09177010E948514EA0FEA933A93E091D2
:101A7C007B010E949114E0E8F0E0E017F10721F4FB
:101A8C0091DF0E94D717EFC2009376010E94D717FF
:101A9C00EAC2BA93AA931A93EC81EA93AC815AD016
:101AAC00A981BA81ED91A983BA831E2FE03019F078
:101ABC00A12F8CDFF5CF188125960895AA930E944B
:101ACC00D217AC81A53018F5ED81FE8105910E94ED
:101ADC009B1415910E949B1425910E949B14359187
:101AEC00ED83FE83E885EA93E885EA930A932A93CB
:101AFC00E1E0EA93EA85FB85FA93EA93AB85AEDCE9
:101B0C000A93A22FB6DE0E94D9170C947011E0E054
:101B1C00F0E060E070E00E94D9170C947011AA9369
:101B2C00EA81EA93EA81EA93E0917D01AA81EA23B2
:101B3C0019F0E091740102C0E0917501AE2F15DC33
:101B4C00E881EE0FE883E03011F4E1E0E883E8810E
:101B5C0023960895AA93A981BB275DDEE0937601B5
:101B6C00A881BB276ADEE09377010C945213AA93E9
:101B7C002B970E94D017AC89BB274DDEEC8BAA8922
:101B8C00BB2749DEEA8BAB89BB2757DEEB8BA989D8
:101B9C00BB2753DEE98BEA89E0937601E989E09370
:101BAC007701E1E0E887E989AB89EA1771F51C89CF
:101BBC00AA891A1731F41A93EC89EA93A1E0AFDFE2
:101BCC00C8C0AA891A1730F4EA89E11B0E2F41E02C
:101BDC0050E006C0AA89E12FEA1B0E2F4FEF5FEFF2
:101BEC003B89E0E0EE830E949E1438F41A933A93FA
:101BFC003395AA8594DFEF83F6CFEF81E887140F36
:101C0C00E02F0150E03061F7A4C0EA89AC89EA17F3
:101C1C0039F53B89A9893A1730F4E989E31B2E2F52
:101C2C00E1E0F0E006C0A989E32FEA1B2E2FEFEFCD
:101C3C00FFEFED87FE871C89E0E0EE830E949E1487
:101C4C0030F41A9313950E94A614EF83F7CFEF810B
:101C5C00E887ED853E0FE22F2150E03061F779C027
:101C6C00E0E0EE830E949E1408F073C01C893B894F
:101C7C00E1E02E2F0E2FAA89BB27EC89F0E0AE1BDA
:101C8C00BF0BAD0155232AF40FEFFA010E94111777
:101C9C00AF01FA01EE0FFF1FEF87F88BA989BB2765
:101CAC00EB89F0E0AE1BBF0BAD87BE87AE85AA23D8
:101CBC003AF42FEFED85FE850E941117ED87FE8714
:101CCC00ED85FE85EE0FFF1FEB87FC871A933A9389
:101CDC00A1E025DFE887E0E0E987EA87AD85BE85EE
:101CEC004A175B07BCF0100FEB85FC850E94AA1409
:101CFC00A985BA854A175B072CF4320FAF85B889D2
:101D0C000E94B1141A930E94A614E887EA89E1177D
:101D1C0051F718C0320FEF85F8890E94AA14ED858F
:101D2C00FE85A985BA85EA17FB072CF4100FAB8545
:101D3C00BC850E94B1141A930E94A614E887E98905
:101D4C00E31741F7EB89EF5FEB8BE989EF5FE98BE9
:101D5C0089CF0E94D71765960895BA93AA932397B3
:101D6C000E94D017ED85E887E0917C01EF83E0912C
:101D7C007401EE83AA89BB27EF850E948C14A98974
:101D8C00BB27E8890E94B814E8890E94BF1471F03F
:101D9C00E885E078F1F4AD85BE85EAE5F0E00E94D7
:101DAC00C7141CF00E94D0140CF413C0332312F08F
:101DBC000E94D514AF81A23020F02230E0E03E0723
:101DCC000CF407C00E94D91421F40A93A22FA1503D
:101DDC0046DDE885E878E83891F0E885E078C9F4E4
:101DEC00AD85BE85A25FBE4F0E94E2143CF0AD856E
:101DFC00BE85A25FBE4F0E94E7140CF40AC00E947D
:101E0C00EC1438F00E94F31421F40A93A42FAF5F62
:101E1C0026DDAA89BB27EF85F0E0AE1BBF0B8D0139
:101E2C0011230AF445C0E885E278E23891F0E885A0
:101E3C00E07811F5AD85BE85A65ABF4F0E94E2141D
:101E4C003CF0AD85BE85A65ABF4F0E94E7140CF43A
:101E5C0013C0332312F00E94D514AF81A23020F0AE
:101E6C002230E0E03E070CF407C00E94D91421F4A4
:101E7C000A93A22FA150F3DCE885E478E43871F0E2
:101E8C00E885E078A9F4AD85BE85EEE0F1E00E942E
:101E9C00C7141CF00E94D0140CF40AC00E94EC145D
:101EAC0038F00E94F31421F40A93A42FAF5FD7DC0F
:101EBC00AA89BB27E8890E948C14A989BB27EF85C6
:101ECC000E94B814EF850E94BF1481F0E885E07879
:101EDC00F1F4EB85FC85AD85BE85AE17BF072CF004
:101EEC00E985FA85EA17FB070CF411C033237AF065
:101EFC000E94D514AF81A23050F0E02FEE5F0E940B
:101F0C00FC1429F4E02FEF5FEA93A22FA8DCE885FC
:101F1C00E878E83871F0E885E078C1F4AD85BE85E5
:101F2C00E8E6F1E00E94C7141CF00E94D0140CF4F7
:101F3C000DC00E94EC1450F0E02FEE5F0E940415CF
:101F4C0029F4E02FEF5FEA93A42F89DCAA89BB2741
:101F5C00E889F0E0AE1BBF0B8D0111230AF450C0D1
:101F6C00E885E278E23871F0E885E07809F5AD852E
:101F7C00BE85E4EBF0E00E94C7141CF00E94D01464
:101F8C000CF416C03323A2F00E94D514AF81A230FA
:101F9C0020F00230E0E01E070CF40AC0E02FE25003
:101FAC000E94FC1429F4E02FE150EA93A22F57DC95
:101FBC00E885E478E43891F0E885E07809F5AD85BA
:101FCC00BE85AC54BF4F0E94E2143CF0AD85BE857B
:101FDC00AC54BF4F0E94E7140CF412C00E94EC14D6
:101FEC0020F00230E0E01E070CF40AC0E02FE250B3
:101FFC000E94041529F4E02FE150EA93A42F2FDC62
:10200C000E94D71763960895AA930E94D217AF81A6
:10201C00BB27ED81F0E0AE1BBF0BFDDB1E2FAF81AC
:10202C00BB27ED81F0E0AE0FBF1FF5DB0E2FAE81AD
:10203C00BB27EC81F0E0AE1BBF0BFFDB3E2FAE816C
:10204C00BB27EC81F0E0AE0FBF1FF7DB2E2F1A93EE
:10205C003A930A93A32F8BDD1A932A930A93A22FF8
:10206C0086DD0E94D91728960895AA930E94D0174E
:10207C00A985A03818F4A885A03408F04FC0509159
:10208C007C01E52F5150E03009F448C0EF81E0307D
:10209C0009F444C0EF81E150EF83EF5F0E2FF0E0C5
:1020AC00A5E0B0E0AE1BBF0BFD010E942D170E94F6
:1020BC0032179F0110E0AE81A03459F40E940C1528
:1020CC001A93A02FA1DF0E940C150A93A12F9CDF5D
:1020DC000FC00E940C151A930A93EA85F0E0FA934C
:1020EC00EA93E0E0F0E0FA93EA93A0E0B0E035DEAA
:1020FC001F5F33231AF4E12FF0E008C00150A12F29
:10210C00BB27E02FF0E0AE1BBF0BFD01EE0FFF1F56
:10211C0031962E0F3F1F011770F6B3CF0E94D717C1
:10212C002A960895AA93EA81EA93EA81EA93EA81CE
:10213C00EA93AFE89ADF0C9499130E949D177B8168
:10214C006A81F981E88177FB770F67FD7160972FC2
:10215C009E5781F078F0983190F4AA27BB278827F6
:10216C0008948795B795A7959A95D1F7EA23FB2301
:10217C00682305C0E8947727EE27FF2766276F773B
:10218C00769508F4606877F9A991B991899199913C
:10219C00EA17FB076807790797FB08950E94BA13A3
:1021AC000E94A3100E94931721F40E9489170C948B
:1021BC00B813DEF70E948917A0E0B0E080E89FE337
:1021CC000E9403160C94B8130E949D1724971A931F
:1021DC0010E00E941115E3E8F9EF62E27EE30E9441
:1021EC005A160E941615DADF0E9411150E9401146E
:1021FC000E941615E0E0F0E060E07FE30E94ED162F
:10220C0009F008F409C00E941B15A0E0B0E080E0C2
:10221C009FE30E94201511E00E941115E0E0F0E010
:10222C0060E87EE30E94ED1609F008F408C00E94F5
:10223C001115E0E0F0E060E07FE30E942015103023
:10224C0041F00E941B150E946415ED83FE836F8381
:10225C0078870E941B150E9411150E945A16E9835B
:10226C00FA836B837C83A1EBB4EC86E292E40E944C
:10227C005A16DF01CB01EDE1F5EE6DE272E40E943E
:10228C0001140E942715ACE4B3E584E091E40E94AC
:10229C000A160E9411150E945A167F936F93FF9392
:1022AC00EF93E981FA816B817C81A1E1BDEE8EED2A
:1022BC009FE30E940A160E942715AEE5BBE788EA49
:1022CC009FE30E940A16AF91BF918F919F910E943C
:1022DC00A8161881299608950E94BA13EBEDFFE019
:1022EC0069EC7FE30E940316DF01CB016DDF0C94D8
:1022FC00B813BA93AA931A930A93AA81BB81129624
:10230C000E948117309729F1AA81BB8114960E94F3
:10231C0081178F01309761F00230E0E01E0780F0EA
:10232C00F80131978F01AA81BB811496ED93FC9330
:10233C00AA81BB8112960E940F143197AC81A083A5
:10234C00AA81BB810E948117FF2312F00E940F14F7
:10235C0006C0AA81BB81EFEFFFEFED93FC931981CF
:10236C00088176C1BA93AA9326970E94D01710E0E1
:10237C00AC85BD85E0E0F0E0ED93FC93EA89FB8948
:10238C003196EA8BFB8B3197E4912E2FE03009F4D8
:10239C0015C1E12FE03039F4253211F411E002C0FF
:1023AC000E942E150AC1E130A9F4253219F40E94BD
:1023BC002E1502C112E040E000E02D3211F401E0D4
:1023CC00FCC02B3211F44BE2F8C0203211F440E285
:1023DC00F4C002C0E23039F450E013E0203311F4C1
:1023EC000068EBC003C0E33009F0E7C0203310F005
:1023FC002A3308F007C0AAE05A9F502DE22FE05371
:10240C005E0FDBC0E22FE33649F40E943515E889F4
:10241C00F989A481AA930E943B15CEC0E33741F4FD
:10242C000E9435150E9441150E9430131E2F0AC0C0
:10243C00E03761F40E9435150E9441150E943C134F
:10244C001E2F086002600F7730E034C0E43611F0C4
:10245C00E93611F4046002C0E53731F4E0E4FCE045
:10246C00EE83FF8315E00CC0E83511F4086003C05F
:10247C00E83709F0A1C0EAE4FCE0EE83FF8314E046
:10248C0002FF14C00E9435150E944B15AB85AA2380
:10249C003AF4EA85FB850E941117EA87FB874DE227
:1024AC00403011F01F5F01C00B7F04C00E94351536
:1024BC000E944B1500FD11C0151778F407FF08C0DA
:1024CC0002FF04C00B7F242F115001C020E301C078
:1024DC0020E20E942E155150EFCF312F01FF17C073
:1024EC003030A1F003FF06C0EE81FF812591EE8311
:1024FC00FF8305C0AE81BF812D91AE83BF830E9447
:10250C002E15503009F051503150EACF4BC020E31A
:10251C00EE81FF810E948517E887F987EE81FF81A4
:10252C003296EE83FF83E885F985AA85BB85AE17C5
:10253C00BF0750F02F5FA885B985EA85FB85EA1B9C
:10254C00FB0BEA87FB87EFCF2A3328F003FF02C08F
:10255C00295F01C0295D04FD1AC0213320F4A88530
:10256C00B985119709F409C0531710F000FF01C089
:10257C0013C020E207FF0BC020E3006102FF07C07D
:10258C000B7F4A930E943B15503009F051500E942A
:10259C002E15503009F051503150A885B98512973D
:1025AC0008F0B5CF00FF08C0503031F05150E0E2D8
:1025BC00EA930E943B15F8CF10E0E0CEAC85BD85C8
:1025CC000E9481170E94D71764960895FF92F82EE7
:1025DC0026970E94D2170E945315309719F4EFEFEB
:1025EC00FFEF23C0DE0116960E940D178D010E948D
:1025FC005315EE83FF83E0E0E887E987DE011A9646
:10260C000E940D170E948117FA93EA931A930A936A
:10261C00EFE7F1E1FA93EA93DE011A96A3DE9F014C
:10262C00AE81BF81E0E0EC93F9010E94D9172A96A4
:10263C00FF900895BA93AA93B981A881109631F0AE
:10264C00FC81EB816A8161931197E9F7EB81FC8145
:10265C0025960895BA93AA93A991B991EE27FF27CD
:10266C006D91662311F03196FBCF0895BA93AA931E
:10267C00AA27BB27E991F9910590002011F011963A
:10268C00FBCFFD010895AA93E881F0E0EA5CF34FDB
:10269C00A491E9810E941D1722960895AA931A937A
:1026AC00E981E73011F0EA3019F41091740109C096
:1026BC00E93019F41091750104C0E830A1F41091BF
:1026CC008401E0917501E03049F0103019F0EFEF22
:1026DC00188129C0EA81E095188125C0103019F4C1
:1026EC00E0E0188120C0EA8118811DC0BA93AA933A
:1026FC00EA81E13021F4E881F981E49114C0E230FF
:10270C0029F4A881B9810E94AF170DC0E33041F4C0
:10271C00A881B981E0918D01F0918E01099503C0DA
:10272C00A881B981EC9123960895AA93EB81E030AE
:10273C0029F4E881A981BA81EC9314C0E23031F418
:10274C00E881A981BA810E94BB170CC0E33051F417
:10275C00E981FA81FA93EA93AA81E0918F01F091D1
:10276C0090010995249608950E949D170E948E173A
:10277C000895E0E2EA93EFE1EA93EC81FD81A6E0B3
:10278C00B0E00E9464170E9437170E94D015DF0139
:10279C00CB010E94EB06DF01CB010C94EA100E94E6
:1027AC005A16A0E0B0E080E092E40E940A160E9463
:1027BC009715EA93ED81FE81A6E0B0E00E946417C4
:1027CC000E9437170E94D015DF01CB010E94EB0647
:1027DC00DF01CB010C947211AEE1B0E00E946417E2
:1027EC000E9437170E94D015DF01CB010E94EB0627
:1027FC00DF01CB0108950E94A2170E9403160895D1
:10280C00E0E0EA93EA9308950E9437170E94981724
:10281C000895ED91FD913196FE93EE930895919864
:10282C00EFEFE4BBE881E5BB0E94B2080C94B6085C
:10283C00E695E695E695AE2F0C94F1080E941509E5
:10284C000C940009EA0FFB1FEE83FF830895EC85BF
:10285C00EA93EF81F8853196EF83F8873197FA93F5
:10286C00EA93A0E00C949B13EC85EA93EF81F88536
:10287C003196EF83F8873197089566277727DF0124
:10288C00CB010C947C135A93AA850C9454130A9381
:10289C000395E889EA935A9308950A930395A889B6
:1028AC000E942709E42308955E2FEC85EA93AF81FB
:1028BC00B885882799270E947C131E2E08950A93A9
:1028CC000395E889EA93EE85EA93E985FA853196D2
:1028DC00E987FA873197D1CFBA93AA93A881B981A6
:1028EC000E94CC1708950E94D017E0917801F091C6
:1028FC0079010895F8010F5F1F4F04900895E0913E
:10290C007801F09179013196E4910895F0E0EA0FA5
:10291C00FB1F8F010895EA93E0E0EA93E0E0F0E01A
:10292C00FA93EA93A9E00C94340AED83FE8308959C
:10293C00AE81AF5FAE83A150E0917C01AE170895DC
:10294C003A93AA850C94950DA985BA85EA0FFB1FBD
:10295C00E987FA870895E985FA85EA1BFB0BE98775
:10296C00FA870895F0E0AE1BBF0B9D01A989BB2728
:10297C000895F0E0EA0FFB1FAF01E885E178E1383C
:10298C000895EA1BFB0B0F01DF01EB85FC85AE17ED
:10299C00BF070895E985FA85E015F10508950A93B6
:1029AC00A22F0C94350C0A93A22FA2500E94E0097E
:1029BC00AE2FEE81EA170895EB85FC85AE17BF07A5
:1029CC000895E985FA85EA17FB0708950A93A42F61
:1029DC000E94350CAF81A23008950A93A42FAE5FEC
:1029EC000E94E009AE2FEE81EA170895EA93A22F18
:1029FC000E94E009AE2FEE81EA170895EA93A42F06
:102A0C000E94E009AE2FEE81EA170895E985EA935A
:102A1C00E985EA930895AD81BE818F8198850895EB
:102A2C00ED83FE836F837887F6CFED81FE816F8116
:102A3C00788508950E940316ED83FE836F83788753
:102A4C000895A981BA818B819C810E945A160895A0
:102A5C002A93AD85BE85EF85F88909950895E88997
:102A6C00F9893497E88BF98B0895AD85BE85EF8590
:102A7C00F88909950895A889B98914960E94811737
:102A8C00EE83FF83AE81BF810895A889B98914961E
:102A9C000E948117EA87FB870895DE011C960E942D
:102AAC000D170E9481170895109639F080ED97E06C
:102ABC000197F1F7A8951197C9F7089530976040E1
:102ACC00704009F070580895552342F4503811F4B1
:102ADC00E0FF04C03196691F791F6BF050E857274F
:102AEC0011F45F93CFC05F3F31F0660F000C579528
:102AFC006795752F08955F9300200AF0CFC0C8C06A
:102B0C0050E8192E1522880F991F9527550F879578
:102B1C0050E8072E0522660F771F7527550F67950E
:102B2C000895689401C0E8945F93F2DF703818F050
:102B3C007F3F08F4A7C056E1571BAAF451955830B3
:102B4C000EF4593030F0EFEFFFEF6FEF7FE777F9CE
:102B5C001AC077275523B9F0EE0FFF1F661F771F9A
:102B6C005A95D1F710C07727583028F0EF2FF62F51
:102B7C00672F5850F9CF552331F076956795F79517
:102B8C00E7955A95D1F700200AF449D15F91089541
:102B9C00689401C0E894309760407040B1F0002414
:102BAC0026F0772312F400943AD1172E7EE11120EF
:102BBC0032F07A95EE0FFF1F661F111CF9CFEF2F25
:102BCC00F62F612D5F938ADF5F9108954F93AF01CC
:102BDC00FD01DA01AB01BC01CA01402D012C142E00
:102BEC004F910895EA0FFB1F681F0895E095F0952B
:102BFC006095EF5FFF4F6F4F08955F9381DF9038C3
:102C0C0071F150E8152604C05F937ADF903839F1E2
:102C1C00703821F1572F591B2BF112F4D7DFFACF53
:102C2C00583118F0AA27BB278827583028F0AB2F2B
:102C3C00B82F88275850F9CF552329F08695B7958A
:102C4C00A7955A95D9F7502D512572F0CBDF38F452
:102C5C006795F795E795739513F420C0B7DF3EDFC2
:102C6C005F910895D8F7FBCFEA1BFB0B680B51F073
:102C7C0010F40094BBDF662392F3EE0FFF1F661F68
:102C8C007A95CBF7EE27FF27662777275F91089574
:102C9C00EFEFFFEF6FE77FEF5F910895EFEFFFEF3F
:102CAC006FE77FE75F9108955F932ADF703851F3E8
:102CBC00903841F301240894791F23F41CF300206D
:102CCC003AF3ECCF0F921F932F933F934F9311270F
:102CDC0022279927689FA0018F9F302D410D591FE6
:102CEC006B9F300D411D591F8E9F27D0BF9F25D044
:102CFC006A9F23D0BE9F1DD0AF9F1BD0AE9F110DDE
:102D0C00291F391F491F591FE32FF42F652F522FED
:102D1C004F913F912F911F910F9066232AF0550FE1
:102D2C00EE1FFF1F661F02C073954BF2CDDE5F9145
:102D3C000895100D211D391F02C0200D311D491F92
:102D4C00591F08955F93DCDE703821F411200AF4CA
:102D5C009FCFA4CF903809F495CF01240894970BFA
:102D6C001BF4D4F30020F3CF792F1F932F933F93B1
:102D7C004F9311241127222733274427552790E2FC
:102D8C00AE17BF078607410730F0AE1BBF0B860B93
:102D9C00410B089401C08894551F221F331F111C2E
:102DAC00AA1FBB1F881F441F9A9551F7F901612D6B
:102DBC004F913F912F911F91662332F0550FEE1FCB
:102DCC00FF1F661F7A9543F27FDE5F91089599236A
:102DDC009AF0772342F0971748F029F4AE17BF0703
:102DEC00860720F031F0989488940895989408946C
:102DFC0008951894889408957723C2F7971798F339
:102E0C00A9F7EA17FB07680788F399F3ECCF0024BE
:102E1C00AF0DB01D0895F195E195F0400895F09532
:102E2C0060957095E195FF4F6F4F7F4F0895EE239E
:102E3C000E2EEA2F19F0EE0F0A94E9F70895EE23FF
:102E4C000E2EEA2F19F0E6950A94E9F70895EE0F85
:102E5C00FF1FEE0FFF1F0895F595E795F595E79584
:102E6C0008956F2F660F660B762F0895FA9FF02D3D
:102E7C00EB9FF00DEA9FE02DF10D08957A9F702DD8
:102E8C006B9F700DF89F700DE99F700D6A9F602D00
:102E9C00710DFB9F600D711DE89F600D711D8827E2
:102EAC00FA9FF02D610D781FEB9FF00D611D781FBF
:102EBC00EA9FE02DF10D681F781F08950ED0D6DF24
:102ECC000EF4A9DF0895E894F7FF02C0A4DF68941C
:102EDC00EA23FB230EF49FDF0895E894F7FF02C06A
:102EEC009ADF6894B7FF06C0A095B095119600F8CC
:102EFC00039400FA0895ED91FC91119708950590B3
:102F0C00F491E02D0895E881F9816A817B8108951F
:102F1C00A881B9818A819B810895E883F9836A83AA
:102F2C007B8308957A936A93FA93EA9308959A931C
:102F3C008A93BA93AA930895182E862F612D192E71
:102F4C00972F712D1B2EBF2FF12D1A2EAE2FE12D89
:102F5C000895E199FECFFF93FFB7F894AEBBBFBBCA
:102F6C00E09AEDB3FFBFFF910895E19B02C0A895D5
:102F7C00FCCF9FB7F894AEBBBFBBE09A8DB3E817FC
:102F8C0019F0EDBBE29AE19A9FBF089500240A164E
:102F9C000B0608955A934A933A932A931A930A93D9
:102FAC0008955D814C813B812A81198108810895A6
:00000001FF
