:080000000C94CC000C940000EC
:100008000C9400000C9400000C9493010C940000D4
:100018000C9400000C9400000C9400000C94000058
:100028000C9400000C9400000C9400000C94000048
:100038000C9400000C9400000C9400000C94000038
:100048000C9400000C9400000C9400001027E803A6
:1000580064000A0001000010000110000100000007
:1000680000001000200040008000717565737469FD
:100078006F6E2031203A0A647574793A3130250060
:100088007175657374696F6E2031203A0A647574EE
:10009800793A333025007175657374696F6E203154
:1000A800203A0A647574793A35302500717565739C
:1000B80074696F6E2031203A0A647574793A373062
:1000C80025007175657374696F6E2031203A0A6472
:1000D8007574793A393025007175657374696F6E76
:1000E8002033203A0A00256400647574793D2000A5
:1000F8007175657374696F6E342F73706565643AD2
:100108000A003436382E37352072706D2052494730
:10011800485400302072706D202020202053544F06
:1001280050202020003436382E37352072706D204C
:100138004C4546542020000080C00400080066009A
:1001480007002A026A001600600172001600760194
:10015800880016008C019E001600A201B40016004B
:10016800B801CA000E00CE01E0000700DC01F10072
:100178001200E301F8001100F5010A01120006025D
:100188001B01120018022D01020038024001000074
:10019800F894EE27ECBBF1E0FBBFEBBFE5BF8DE0C9
:1001A800A2E0BB27ED938A95E9F780E094E0A0E60A
:1001B800ED930197E9F7E2E4F1E0859195910097D5
:1001C80061F0A591B59105901590BF01F0010590DA
:1001D8000D920197E1F7FB01F0CFEFE5EDBFE4E009
:1001E800EEBFC0E6D1E00C94F90023D0789426D075
:1001F8006DD090D0FFCFE0E0EABBEBBBEFEFE7BB01
:10020800E0E0E8BBEFEFE4BBE0E0E5BBEFEFE1BB2C
:10021800E0E0E2BB0895E5E6E3BFE0E0E2BFE2BD6F
:10022800E7E0E5BDE6E0E4BDE0E0E3BDE0E4E9BF2A
:100238000895E1DFF0DFA0E14BD10895EAE1ECBFDA
:1002480015D1A0E6B1E00E945B04EDE4ECBF0ED14D
:10025800A6E7B1E00E945B04E0E8ECBF07D1ACE898
:10026800B1E00E945B04E2EBECBF00D1A2EAB1E08E
:100278000E945B04E5EEECBFF9D0A8EBB1E00E9468
:100288005B040895BA93AA93E881F9810E94EC056A
:100298000E940B05A5EBB4EB84EB9EE30E948E0550
:1002A800A0E0B0E080EA90E40E943E050E94D404F9
:1002B8002F010E94EC050E940B05A3E3B3E383E240
:1002C80090E40E948E050E94D404CEC02297CED01E
:1002D800AEECB1E0ECD0E9B3F0E0DF01D3DFECBF86
:1002E800FE01FA93EA93EEEEF0E0FA93EA93F20154
:1002F8000E94EC050E94F90584E00E940E042896ED
:10030800ACEDB1E0D4D0DE01D2D0A8E8B3E10E94D0
:100318009B04AAC0E1E0BE2E6624772408950A92C1
:100328001A92FA926A937A938A939A93AA93BA93AF
:10033800EA93FA93EFB7EA93E6E0E4BDBB2009F449
:100348005AC0F40131964F01E0E0EA93A0E081D071
:10035800A3EEB1E0ACD0F301AAE2B2E0EE0FFF1FCA
:10036800AE0FBF1FEC91E8BBE4E6F0E0E815F90535
:1003780084F09098919AF30131963F01E4E0F0E01F
:100388006E167F0614F066247724A5EFB1E08FD0AF
:1003980032C0E4E6F0E0E815F9052CF4E8ECF0E00A
:1003A8008E169F060CF009C090989198E4E0F0E052
:1003B8003F01A6E0B2E07BD01EC0E4E6F0E08E1676
:1003C8009F062CF0ECE2F1E08E169F060CF010C0B0
:1003D800909A9198F30131973F01002460147004BA
:1003E8001CF4E3E0F0E03F01A8E1B2E060D003C014
:1003F800E4E0F0E03F01E991EFBFF991E991B991AB
:10040800A9919991899179916991F9901990099097
:100418001895AA93E5B3EF70AE2FE881E07FEA2B39
:10042800E5BB8DE08A95F1F7AA9A8DE08A95F1F7F8
:10043800AA988DE08A95F1F777C0AA93A881E9DF99
:10044800E881E295E883A881E4DF85E88A95F1F7F9
:100458006BC0AA93E881F0E0E85CFD4FE081A981D8
:10046800AE0FEBDFA980D88022960895A2E00E9403
:100478006104ACE0E2DFA1E00E946104E0E0DE2E6E
:10048800AE2E0895AA93A881AA3011F0AC1448F0B2
:10049800E0E0EA93D394AD2DDCDFA881AA3009F41B
:1004A80043C0A394A89AA881C8DFA8983DC0BA936E
:1004B800AA931A93A981BA81ED91A983BA831E2FB1
:1004C800E03019F0A12FDEDFF5CF188123960895CB
:1004D800AA93E4B3E06FE4BBA29AA09AA19AAA985F
:1004E800A898A998C880E881E058E0933A02E88182
:1004F800E054E0933B02A4E1B0E00E949B040E9418
:1005080067040E9467040E946704A0E282DF88EC07
:1005180090E00197F1F7A8E290DFA4E08EDFA5E86C
:100528008CDFA6E08ADFA2DF21960895BA93AA930A
:100538001A930A93AA81BB8112960E94F1053097FB
:1005480059F1AA81BB8114960E94F1058F01309759
:1005580061F00230E0E01E0798F0F80131978F0152
:10056800AA81BB811496ED93FC93AA81BB81129654
:10057800ED91FD913196FE93EE933197AC81A08376
:10058800AA81BB810E94F105FF232AF0ED91FD911C
:100598003196FE93EE9306C0AA81BB81EFEFFFEF81
:1005A800ED93FC931981088125960895BA93AA932F
:1005B80026970E94FE0510E0AC85BD85E0E0F0E0DE
:1005C800ED93FC93EA89FB893196EA8BFB8B319793
:1005D800E4912E2FE03009F415C1E12FE03039F411
:1005E800253211F411E002C00E946F040AC1E13003
:1005F800A9F4253219F40E946F0402C112E040E008
:1006080000E02D3211F401E0FCC02B3211F44BE272
:10061800F8C0203211F440E2F4C002C0E23039F4EC
:1006280050E013E0203311F40068EBC003C0E3305E
:1006380009F0E7C0203310F02A3308F007C0AAE019
:100648005A9F502DE22FE0535E0FDBC0E22FE336B6
:1006580049F40E947604E889F989A481AA930E9442
:100668007C04CEC0E33741F40E9476040E948204E1
:100678000E9442041E2F0AC0E03761F40E947604EB
:100688000E9482040E944E041E2F086002600F77A9
:1006980030E034C0E43611F0E93611F4046002C0E9
:1006A800E53731F4E4E5F0E0EE83FF8315E00CC0B4
:1006B800E83511F4086003C0E83709F0A1C0EEE599
:1006C800F0E0EE83FF8314E002FF14C00E9476047A
:1006D8000E948C04AB85AA233AF4EA85FB850E9424
:1006E800E005EA87FB874DE2403011F01F5F01C04B
:1006F8000B7F04C00E9476040E948C0400FD11C088
:10070800151778F407FF08C002FF04C00B7F242FD9
:10071800115001C020E301C020E20E946F04515033
:10072800EFCF312F01FF17C03030A1F003FF06C013
:10073800EE81FF812591EE83FF8305C0AE81BF81E5
:100748002D91AE83BF830E946F04503009F0515041
:100758003150EACF4BC020E3EE81FF810E94F505BE
:10076800E887F987EE81FF813296EE83FF83E8857B
:10077800F985AA85BB85AE17BF0750F02F5FA885FE
:10078800B985EA85FB85EA1BFB0BEA87FB87EFCF78
:100798002A3328F003FF02C0295F01C0295D04FD48
:1007A8001AC0213320F4A885B985119709F409C026
:1007B800531710F000FF01C013C020E207FF0BC061
:1007C80020E3006102FF07C00B7F4A930E947C046C
:1007D800503009F051500E946F04503009F05150C8
:1007E8003150A885B985129708F0B5CF00FF08C029
:1007F800503031F05150E0E2EA930E947C04F8CF87
:1008080010E0E0CEAC85BD850E94F1050E9405068A
:1008180064960895FF92F82E26970E9400060E947B
:100828009404309719F4EFEFFFEF23C0DE0116961A
:100838000E94DC058D010E949404EE83FF83E0E0B2
:10084800E887E987DE011A960E94DC050E94F10517
:10085800FA93EA931A930A93EAE9F2E0FA93EA938D
:10086800DE011A96A3DE9F01AE81BF81E0E0EC9322
:10087800F9010E9407062A96FF900895BA93AA9351
:10088800A991B991EE27FF276D91662311F0319652
:10089800FBCF0895BA93AA93AA27BB27E991F991A8
:1008A8000590002011F01196FBCFFD0108950E94DC
:1008B8005B02A0EDB7E00C949B040E942102A3E028
:1008C800B0E00C949B04A0E30E940D0288EC90E039
:1008D8000197F1F708952A93AD85BE85EF85F889CC
:1008E80009950895E889F9893497E88BF98B089573
:1008F800AD85BE85EF85F88909950895A889B989D8
:1009080014960E94F105EE83FF83AE81BF8108959E
:10091800A889B98914960E94F105EA87FB8708958A
:10092800DE011C960E94DC050E94F10508951096D0
:1009380039F080ED97E00197F1F7A8951197C9F77D
:100948000895552342F4503811F4E0FF04C031965D
:10095800691F791F6BF050E8572711F45F93C8C0DF
:100968005F3F31F0660F000C57956795752F089516
:100978005F9300200AF0C8C0C1C050E8192E1522A4
:10098800880F991F9527550F879550E8072E052240
:10099800660F771F7527550F67950895689401C0EE
:1009A800E8945F93F2DF703818F07F3F08F4A0C036
:1009B80056E1571BAAF4519558300EF4593030F0CF
:1009C800EFEFFFEF6FEF7FE777F91AC0772755232F
:1009D800B9F0EE0FFF1F661F771F5A95D1F710C0A9
:1009E8007727583028F0EF2FF62F672F5850F9CF78
:1009F800552331F076956795F795E7955A95D1F790
:100A080000200AF4DDD05F910895689401C0E8944D
:100A1800309760407040B1F0002426F0772312F43C
:100A28000094CED0172E7EE1112032F07A95EE0F89
:100A3800FF1F661F111CF9CFEF2FF62F612D5F9353
:100A48008ADF5F9108954F93AF01FD01DA01AB0191
:100A5800BC01CA01402D012C142E4F910895EA0FB4
:100A6800FB1F681F0895E095F0956095EF5FFF4FB5
:100A78006F4F08955F9381DF903839F1703821F115
:100A8800572F591B2BF112F4DEDFFACF583118F02B
:100A9800AA27BB278827583028F0AB2FB82F8827DC
:100AA8005850F9CF552329F08695B795A7955A95AB
:100AB800D9F7502D512572F0D2DF38F46795F795A4
:100AC800E795739513F420C0BEDF45DF5F91089565
:100AD800D8F7FBCFEA1BFB0B680B51F010F400941E
:100AE800C2DF662392F3EE0FFF1F661F7A95CBF7DE
:100AF800EE27FF27662777275F910895EFEFFFEF2F
:100B08006FE77FEF5F910895EFEFFFEF6FE77FE704
:100B18005F9108955F9331DF703851F3903841F356
:100B280001240894791F23F41CF300203AF3ECCF36
:100B38000F921F932F933F934F93112722279927A3
:100B4800689FA0018F9F302D410D591F6B9F300D5D
:100B5800411D591F8E9F27D0BF9F25D06A9F23D044
:100B6800BE9F1DD0AF9F1BD0AE9F110D291F391FEF
:100B7800491F591FE32FF42F652F522F4F913F9193
:100B88002F911F910F9066232AF0550FEE1FFF1F1C
:100B9800661F02C073954BF2D4DE5F910895100D65
:100BA800211D391F02C0200D311D491F591F0895ED
:100BB8000024AF0DB01D0895F195E195F04008951A
:100BC800F09560957095E195FF4F6F4F7F4F0895B1
:100BD8006F2F660F660B762F0895ED91FC91119794
:100BE80008950590F491E02D08957A936A93FA9305
:100BF800EA9308955A934A933A932A931A930A9335
:100C080008955D814C813B812A811981088108956D
:00000001FF
