:060000000C94E9000C94D1
:1000060000000C9400000C9400000C9400000C946A
:1000160000000C9400000C9400000C9400000C945A
:1000260000000C9400000C942D010C9400000C941C
:1000360019020C9400000C9400000C9400000C941F
:1000460000000C9400000C9400000C940000102793
:10005600E80364000A00010000100001100001001E
:100066000000600173010000706172742032207319
:1000760074617472743A20200D0A000D0A70617260
:1000860074203220656E640D0A000D0A7061727468
:100096002033207374617472743A20200D0A0000B4
:1000A600202020202020202020202020202020204A
:1000B60020200025630025640052583A20446174CC
:1000C60061206973206120696E74656765722061BD
:1000D6006E642031302A646174613D25640D0A0026
:1000E6006C63642064656C657465002A2A2A2A2A72
:1000F6002A2A2A2A2A2A2A2A2A2A2A2A2A2A0D0A97
:10010600004D6963726F2070726F636573736F72EF
:10011600206C61620D0A004E6F2066756E6374690D
:100126006F6E20646566696E656421007061727425
:10013600203320656E640D0A002573002825732977
:100146000A0025730A006C656E677468206F662066
:10015600666F726D6174206E6F7420636F72726564
:1001660063740D0A004672616D65206D75737420A7
:100176006265203520696E74656765720D0A000A2E
:10018600656E64206F66206672616D65000D0A708B
:1001960061727420342073746172740D0A0080C019
:1001A60001000200660006000400680013006001FA
:1001B600A60013007301A6000B008601E6000E00E0
:1001C600910185010200B501A4010000F894EE2713
:1001D600ECBBF1E0FBBFEBBFE5BF8DE0A2E0BB27C8
:1001E600ED938A95E9F780E094E0A0E6ED93019718
:1001F600E9F7E6EAF1E085919591009761F0A5911E
:10020600B59105901590BF01F00105900D920197EB
:10021600E1F7FB01F0CFEFE5EDBFE4E0EEBFC0E6AE
:10022600D1E00C9416010E947B027894EEE6F0E091
:100236000E9429080E940E03E1E8F0E00E942908C6
:10024600E0E9F0E00E9429080E9438030E94CE03EC
:10025600FFCFFFCF0A921A92FA926A937A938A9301
:100266009A93AA93BA93EA93FA93EFB7EA931A93F7
:100276000A931BB10CB1E1E0E91509F087C0E02F44
:10028600F0E0E033A0E0FA0721F0E133A0E0FA075E
:1002960009F404C0E233A0E0FA0709F404C0E3332A
:1002A600A0E0FA0709F404C0E433A0E0FA0709F471
:1002B60004C0E533A0E0FA0709F404C0E633A0E081
:1002C600FA0709F404C0E733A0E0FA0709F404C00A
:1002D600E833A0E0FA0709F404C0E933A0E0FA071E
:1002E60071F55A924A92E9EBF0E0FA93EA93E02F1D
:1002F600FF27662777270E9430085A924A92ECEB2E
:10030600F0E0FA93EA93EAE0F0E060E070E00E9441
:10031600F80884E00E9415072896EFEBF0E0FA93C0
:10032600EA93F501AAE0B0E00E94DD080E94D00839
:100336000E94F80884E00E948605269622C0E434CE
:10034600A0E0FA0739F40E947F07A6E8B1E00E9410
:10035600370817C0E834A0E0FA0759F4E1EFF0E0F7
:100366000E942908E7E0F1E00E942908E1EFF0E0A9
:1003760002C0EDE1F1E0FA93EA9380E00E9486057F
:1003860022969924E2E3F1E00E942908E12FEC711C
:10039600E9F4E091A701EF5FE093A701E150F0E0F7
:1003A600E156FE4F0083A091A701A83019F4E0E0C2
:1003B600E093A701A091A901AF5FA093A901A8307E
:1003C60029F4E0E0E093A901689420F809911991D5
:1003D600E991EFBFF991E991B991A9919991899123
:1003E60079916991F9901990099018951A93E0916D
:1003F600A901E030E1F3E091A801EF5FE093A801E5
:10040600E150F0E0E156FE4F1081A091A801A8301E
:1004160019F4E0E0E093A801F894E091A901E15015
:10042600E093A9017894E12F19910895AA93EA938C
:10043600FA93EFB7EA93E091B401E030A9F0E15006
:10044600E093B401E091B301EF5FE093B301E150B3
:10045600F0E0E655FE4FE081ECB9A091B301A8307B
:1004660019F4E0E0E093B301E991EFBFF991E99166
:10047600A9911895AA93A091B401A830E1F3F89434
:10048600E091B401E03011F45D9918C0E091B20139
:10049600EF5FE093B201E150F0E0E655FE4FA88130
:1004A600A083A091B201A83019F4E0E0E093B20174
:1004B600E091B401EF5FE093B40102C0E881ECB9CA
:1004C60078940C94EB07E0E0EABBEBBBE7BBE8BB38
:1004D600E4BBE5BBE1BBE2BB0895E0E0EBB9E8EDC8
:1004E600EAB9E6E8E0BDE0E0E0BDE3E3E9B9089596
:1004F600EADFF3DFA0E10E94BE070895BA93AA934C
:10050600EC81FD81EC32A1E0FA0721F4E6E0E0BDE2
:10051600E2E857C0E835A2E0FA0721F4E3E0E0BDDF
:10052600E0E44FC0E03BA4E0FA0721F4E1E0E0BDDF
:10053600E0EA47C0E036A9E0FA0721F4E0E0E0BDD2
:10054600EFEC3FC0E03CA2E1FA0721F4E0E0E0BDB9
:10055600E7E637C0E038A5E2FA0781F1E034A8E320
:10056600FA0721F4E0E0E0BDE2E22BC0E030ABE4C4
:10057600FA0721F4E0E0E0BDE9E123C0E030A6E9B6
:10058600FA0721F4E0E0E0BDECE01BC0E03CAAED98
:10059600FA0721F4E0E0E0BDE8E013C0E030A1EEA8
:1005A600FA0721F4E0E0E0BDE8E00BC0E030A2ECA1
:1005B600FA0721F4E0E0E0BDE3E003C0E0E0E0BDDF
:1005C600E3E3E9B9E881F981309721F4EAB1E07013
:1005D600EAB90CC0E130A0E0FA0711F4539A06C05C
:1005E600E230A0E0FA0711F4539A569AEA81FB81A9
:1005F600309721F4EAB1E070EAB90CC0E130A0E02E
:10060600FA0711F4549A06C0E230A0E0FA0711F492
:10061600549A579A28C00E943D08A1E0B0E06EDFC8
:10062600EFE3F1E0FA93EA93F201662777270E9457
:10063600F80884E00E94310726967A926A92E2E4EC
:10064600F1E0FA93EA93F201662777270E943008D1
:10065600E8E4F1E0FA93EA93F301662777270E942C
:10066600F80884E050D2269608950E943D08A2E03C
:10067600B0E044DFE1E09E2E0895B8DE8E2E002421
:100686000C140D0419F4E8E2E81509F405C0CC24AD
:10069600DD240E947F077EC00C2C0D2829F4F6016C
:1006A60031966F01319776C000240C140D042CF49A
:1006B600E6E0F0E0CE16DF060CF04FC0E82DF0E0E5
:1006C600E033A0E0FA0721F0E133A0E0FA0709F4ED
:1006D60004C0E233A0E0FA0709F404C0E333A0E063
:1006E600FA0709F404C0E433A0E0FA0709F404C0E9
:1006F600E533A0E0FA0709F404C0E633A0E0FA0700
:1007060009F404C0E733A0E0FA0709F404C0E833AB
:10071600A0E0FA0709F404C0E933A0E0FA0741F4BF
:10072600A82D0E948D07F60131966F01319714C0EE
:10073600E932A0E0FA0729F40E947F07ECE4F1E031
:1007460004C00E947F07EBE6F1E0FA93EA9380E0AB
:10075600DAD12296CC24DD241DC0E6E0F0E0EC15CB
:10076600FD0519F4E9E2E81509F407C00E947F07C0
:10077600EBE6F1E00E9429080BC0E6E0F0E0EC159C
:10078600FD0541F4A1E9B1E00E9437080E947F0708
:10079600CC24DD2408959920F1F7E3E9F1E00E94E5
:1007A6002908E0E8F5E2FA93EA93E2E0F0E0FA934A
:1007B600EA93A2E0B0E0A2DE60DFFECFBA93AA938E
:1007C600AA8158DEA881B9810E9446080C94BC070C
:1007D600BA93AA931A930A93AA81BB8112960E948E
:1007E600F008309729F1AA81BB8114960E94F0087F
:1007F6008F01309761F00230E0E01E0780F0F801CB
:1008060031978F01AA81BB811496ED93FC93AA813F
:10081600BB8112960E9446083197AC81A083AA81BB
:10082600BB810E94F008FF2312F00E94460806C012
:10083600AA81BB81EFEFFFEFED93FC93198108814D
:10084600ADC1BA93AA9326970E94FD0810E0AC8525
:10085600BD85E0E0F0E0ED93FC93EA89FB893196F3
:10086600EA8BFB8B3197E4912E2FE03009F415C10A
:10087600E12FE03039F4253211F411E002C00E9474
:100886004C080AC1E130A9F4253219F40E944C083B
:1008960002C112E040E000E02D3211F401E0FCC09C
:1008A6002B3211F44BE2F8C0203211F440E2F4C0CE
:1008B60002C0E23039F450E013E0203311F400684E
:1008C600EBC003C0E33009F0E7C0203310F02A3351
:1008D60008F007C0AAE05A9F502DE22FE0535E0FA2
:1008E600DBC0E22FE33649F40E945308E889F98910
:1008F600A481AA930E945908CEC0E33741F40E940E
:1009060053080E945F080E94ED071E2F0AC0E037B9
:1009160061F40E9453080E945F080E94F9071E2F87
:10092600086002600F7730E034C0E43611F0E93633
:1009360011F4046002C0E53731F4E4E5F0E0EE833B
:10094600FF8315E00CC0E83511F4086003C0E837F2
:1009560009F0A1C0EEE5F0E0EE83FF8314E002FFAC
:1009660014C00E9453080E946908AB85AA233AF472
:10097600EA85FB850E94CC08EA87FB874DE240307A
:1009860011F01F5F01C00B7F04C00E9453080E9434
:10099600690800FD11C0151778F407FF08C002FFAB
:1009A60004C00B7F242F115001C020E301C020E2B8
:1009B6000E944C085150EFCF312F01FF17C0303045
:1009C600A1F003FF06C0EE81FF812591EE83FF8330
:1009D60005C0AE81BF812D91AE83BF830E944C08B6
:1009E600503009F051503150EACF4BC020E3EE8130
:1009F600FF810E94F408E887F987EE81FF8132962D
:100A0600EE83FF83E885F985AA85BB85AE17BF0708
:100A160050F02F5FA885B985EA85FB85EA1BFB0B9D
:100A2600EA87FB87EFCF2A3328F003FF02C0295F4E
:100A360001C0295D04FD1AC0213320F4A885B985BB
:100A4600119709F409C0531710F000FF01C013C035
:100A560020E207FF0BC020E3006102FF07C00B7F07
:100A66004A930E945908503009F051500E944C0890
:100A7600503009F051503150A885B985129708F0C9
:100A8600B5CF00FF08C0503031F05150E0E2EA9394
:100A96000E945908F8CF10E0E0CEAC85BD850E94D3
:100AA600F0080E94040964960895FF92F82E26978E
:100AB6000E94FF080E947108309719F4EFEFFFEFCC
:100AC6001DC0DE0116960E94C8088D010E9471089D
:100AD600EE83FF83E0E0E887E987DE011A960E944D
:100AE6007808EBEEF3E0FA93EA93DE011A96A9DEB4
:100AF6009F01AE81BF81E0E0EC93F9010E940609F7
:100B06002A96FF900895FF92F82E26971A930A9335
:100B1600DE0114960E94C8088D01E0E0EC83ED83A7
:100B2600EE83EF83DE0118960E947808E1EEF3E08B
:100B3600FA93EA93DE01189684DE198108812896D5
:100B4600FF9008950E94810829F0AB81BC81E0E006
:100B5600EC9303C00E94F9011E2F1EC00E9481085B
:100B660029F0AB81BC81E0E0EC9316C0A981BA8183
:100B760011960E94F008309771F0E981FA81A181FF
:100B8600B281EC911E2FE03029F0A981BA8111962D
:100B96000E94460801C010E0E12F188125960895AD
:100BA600FF92BA93AA9324970E94FD08E0E0F0E032
:100BB600E887F9874E2FE889F9893196E88BF98B12
:100BC6003197E4913E2FE03009F425C10E948E084A
:100BD600C1F0EDB7FEB7FA93EA934F930E949308DC
:100BE6004F913E2FE03019F00E948E0809F407C09D
:100BF6000E9499081CF4EFEFFFEF0FC1EACF432FD5
:100C060009C1353209F0EEC050E0E889F98935911D
:100C1600E88BF98B303310F03A3308F007C0AAE0BE
:100C26005A9F502DE32FE0535E0FEFCF303009F47B
:100C3600F2C0EDB7FEB7FA93EA934F930E9493087A
:100C46004F912E2FAE2F0E940F08E03039F00E94F0
:100C560099081CF4EFEFFFEFE0C0EBCF203009F46A
:100C6600D1C0422F503009F45FEFE32FE33699F4F9
:100C76000E949E08EDB7FEB7FA93EA934F930E943F
:100C860093084F91D801EC930E9499081CF4EFEF5A
:100C9600FFEFC3C0A1C0E33741F50E949E08E52FD0
:100CA6005150E030F1F0EDB7FEB7FA93EA934F9367
:100CB6000E9493084F913E2FE03019F00E948E0853
:100CC60039F00E9499081CF4EFEFFFEFA6C009C0A7
:100CD6001F930F930F5F1F4FE32FAF91BF91EC93BD
:100CE600DECFD801E0E0EC9377C06894F1F8E894A1
:100CF600F2F8E32FE43611F0E93619F4E894F1F846
:100D060002C0E53711F42AE008C0E83711F420E103
:100D160004C0E53209F466C07EC0E0E0EE83EF83EE
:100D26006894F0F8E52F5150E03009F446C0EDB76D
:100D3600FEB7FA93EA934F930E9493084F913E2F82
:100D4600E13238F40E9499081CF4EFEFFFEF65C01A
:100D560017C0F1FC08C06894F1F83D3211F4F2F8BE
:100D6600E1CF3B32F9F2203131F4A32F0E941A0869
:100D7600E03031F009C0A32F0E940608E03021F4CC
:100D8600F0FC49C0432F19C0313610F0375505C065
:100D9600313410F0375301C03053E22FAE81BF819A
:100DA600F0E00E94D508DF01E32FF0E0EA0FFB1F19
:100DB600EE83FF83E894F0F8B5CF0E949E08F2FE1A
:100DC60006C0EE81FF810E94CC08EE83FF83EE8190
:100DD600FF81D801ED93FC93E885F9853196E88784
:100DE600F98718C0EDB7FEB7FA93EA934F930E94BE
:100DF60093084F91E31771F00E9499081CF4EFEFE6
:100E0600FFEF0BC0E885F985309719F4EFEFFFEF98
:100E160004C001C0D0CEE885F9850E940409629617
:100E2600FF900895FF92F82E23971A930A930E9433
:100E3600A908309719F4EFEFFFEF28C0DE011196ED
:100E46000E94C8088D010E94A908EB83FC83DE017D
:100E560015960E947808E1EBF5E013C0FF92F82E94
:100E660023971A930A93DE0111960E94C8088D01F2
:100E7600E0E0EB83EC83DE0115960E947808E5EA54
:100E8600F5E0FA93EA93DE0118968ADE1981088165
:100E96002596FF900895AA93E5B3EF70AE2FE881EB
:100EA600E07FEA2BE5BB8DE08A95F1F7AA9A8DE003
:100EB6008A95F1F7AA988DE08A95F1F789C0AA93E9
:100EC600A881E9DFE881E295E883A881E4DF85E887
:100ED6008A95F1F77DC0AA93E881F0E0EB54FE4FC6
:100EE600E081A981AE0FEBDFE981E093B901E881EA
:100EF600E093BA0122960895A2E00E94B008ACE001
:100F0600DEDFA1E00E94B008E0E0E093BA01E093E2
:100F1600B9010895AA93A881AA3031F0E091BB01E6
:100F2600A091B901AE1760F0E0E0EA93A091BA0192
:100F3600AF5FA093BA01CFDFA881AA3009F448C0F9
:100F4600E091B901EF5FE093B901A89AA881B7DFF4
:100F5600A8983EC0BA93AA931A93A981BA81ED9133
:100F6600A983BA831E2FE03019F0A12FD3DFF5CF66
:100F7600188123960895AA93E4B3E06FE4BBA29A7E
:100F8600A09AA19AAA98A898A998E881E093BB018B
:100F9600E058E093B701E881E054E093B801A4E19A
:100FA600B0E00E94BE080E94B6080E94B6080E94E1
:100FB600B608A0E270DF88EC90E00197F1F7A8E2AE
:100FC6007EDFA4E07CDFA5E87ADFA6E078DF94DFA9
:100FD60021960895BA93AA93A991B991EE27FF276E
:100FE6006D91662311F03196FBCF0895BA93AA93BB
:100FF600AA27BB27E991F9910590002011F01196D7
:10100600FBCFFD010895AA93E1E0F991F03310F0CA
:10101600FA3308F0EE270895AA93E1E0F991F03249
:1010260029F0F93010F0FE3008F0EE270895AA9363
:10103600E1E0F991F05340F0FA3038F0FF75F750DF
:10104600FA3010F0F03108F0EE270895FA93EA939B
:1010560080E00E948605229608950E94F80884E0A2
:101066000E945805289608950E94AD07A8EEB3E0A1
:101076000C94BE08E0E8F5E2FA93EA93E1E0F0E0CA
:10108600FA93EA930895ED91FD913196FE93EE93CE
:1010960008952A93AD85BE85EF85F889099508954B
:1010A600E889F9893497E88BF98B0895AD85BE8573
:1010B600EF85F88909950895A889B98914960E943B
:1010C600F008EE83FF83AE81BF810895A889B989B0
:1010D60014960E94F008EA87FB870895DE011C96A5
:1010E6000E94C8080E94F00808950E94C8080E943D
:1010F600F008FA93EA931A930A930895BA93AA9377
:101106001A93A981BA81E0E0EC93AB81BC81EC91A2
:101116001E2FE0300895A32F0E940F08E030089597
:10112600AC85BD85EE85FF8509950895AA85BB85A5
:10113600AC91A0300895EE85FF853497EE87FF8742
:10114600AE85BF8514960D911C910895DE01179604
:101156000E94C8080E94F00808950E946207A3E052
:10116600B0E00C94BE08A0E30E944E0788EC90E025
:101176000197F1F70895109639F080ED97E0019701
:10118600F1F7A8951197C9F708950024AF0DB01D82
:101196000895F195E195F04008956F2F660F660B5F
:1011A600762F0895FA9FF02DEB9FF00DEA9FE02D24
:1011B600F10D089504D0F6DF0EF4EBDF0895E89400
:1011C600F7FF02C0E6DF6894B7FF06C0A095B095AA
:1011D600119600F8039400FA0895ED91FC91119789
:1011E60008950590F491E02D08957A936A93FA9301
:1011F600EA9308955A934A933A932A931A930A9331
:1012060008955D814C813B812A8119810881089569
:00000001FF
