:0A0000000C9433000C9400000C94E3
:10000A0000000C9400000C9400000C9400000C9466
:10001A0000000C9400000C9400000C9400000C9456
:10002A0000000C9400000C9400000C9400000C9446
:10003A0000000C9400000C9400000C9400000C9436
:10004A0000000C9400000C9400003F065B4F666DA4
:10005A007D077F6F0A00600154000000F894EE27C4
:10006A00ECBBF1E0FBBFEBBFE5BF8DE0A2E0BB2735
:10007A00ED938A95E9F780E094E0A0E6ED93019785
:10008A00E9F7EEE5F0E085919591009761F0A59189
:10009A00B59105901590BF01F00105900D92019759
:1000AA00E1F7FB01F0CFEFE5EDBFE4E0EEBFC0E61C
:1000BA00D1E00C946000E8ECF0E0FA93EA93E3E014
:1000CA00EA93A2E015D0E8EBFBE0FA93EA93A3E007
:1000DA0058D0E1E0EA93A0E0A5D0E1E0EA93A2E0FB
:1000EA0069D0ADECBCEC8CE49EE316D1F6CFFFCF21
:1000FA00AA93A881A13079F4EFEFEABB4424E981FD
:10010A004E1640F4EFEFEBBB77D1E0E0EBBB74D1D6
:10011A004394F5CF35C0A881A23079F4EFEFE7BB5D
:10012A004424E9814E1640F4EFEFE8BB65D1E0E0E4
:10013A00E8BB62D14394F5CF23C0A881A33079F4F8
:10014A00EFEFE4BB4424E9814E1640F4EFEFE5BB40
:10015A0053D1E0E0E5BB50D14394F5CF11C0A8815B
:10016A00A43071F4EFEFE1BB4424E9814E1640F468
:10017A00EFEFE2BB41D1E0E0E2BB3ED14394F5CFE1
:10018A0039C1AA93E881A1E00E947F0339D14424AE
:10019A00E7E04E1668F4E8B3EE0FAE2FE8B3F0E0EE
:1001AA000E9489030E948703EA2B2AD14394F0CF45
:1001BA0023960895AA93A981A13021F4E0E0EABB2D
:1001CA0059B214C0A981A23021F4E0E0E7BB56B2CB
:1001DA000DC0A981A33021F4E0E0E4BB53B206C00C
:1001EA00A981A43019F4E0E0E1BB50B2A881A130A2
:1001FA0021F4EFEFEABB5BBA14C0A881A23021F464
:10020A00EFEFE7BB58BA0DC0A881A33021F4EFEF96
:10021A00E4BB55BA06C0A881A43019F4EFEFE1BBDC
:10022A0052BA78C0AA93EFE0E1BBEFEFE4BBA98131
:10023A00A13091F5A881A13051F4E0E0E2BB442459
:10024A00EAE04E1618F4E6D04394FACF24C0EEE062
:10025A00E2BB4424EAE04E1618F4DCD04394FACF09
:10026A00EDE0E2BB4424EAE04E1618F4D3D04394FE
:10027A00FACFEBE0E2BB4424EAE04E1618F4CAD007
:10028A004394FACFE7E0E2BB4424EAE04E1618F4BE
:10029A00C1D04394FACF3EC0A881A13059F4E0E01E
:1002AA00E2BBE9E04E2EE0E0E41518F4B3D04A943C
:1002BA00FACF2EC0EEE0E2BBE9E04E2EE0E0E41514
:1002CA0018F4A8D04A94FACF4424A4D0EDE0E2BBB3
:1002DA00E9E04E2EE0E0E41518F49CD04A94FACFF7
:1002EA00442498D0EBE0E2BBE9E04E2EE0E0E415CE
:1002FA0018F490D04A94FACF44248CD0E7E0E2BBB9
:10030A00E9E04E2EE0E0E41518F484D04A94FACFDE
:10031A00442480D0229608950E94CE03E0E0EABBEE
:10032A00EFEFE4BB59B2E0E0E51508F063C0A52D94
:10033A00BB277AD0E0936B01A52DB0E0EAE0F0E0AC
:10034A000E94A803DF0170D0E0936C01A52DB0E0F4
:10035A00E4E6F0E00E94A803DF0166D0E0936D01B5
:10036A004424E5E04E16F8F4EEE0E2BBE0916D01BC
:10037A0060D0EDE0E2BBE0916C015BD0EBE0E2BB68
:10038A00E0916B01F0E0E05AFE4FE081E068E5BBE6
:10039A00A5E0B0E00E943002E7E0E2BBE0916A012A
:1003AA0048D04394DECFA0916A01A03081F44AD0AC
:1003BA00A0E0B0E080E291E40E94D8030E94D30258
:1003CA00AAE6B1E00E946702EC935A9412C0E09147
:1003DA006A01F0E0FF93EF9335D0AF91BF910E948D
:1003EA0090030E94D5030E94D8030E94D302E0938F
:1003FA006A0199CF24960895AA81BB810C94300290
:10040A00E8BBA981BA81E8E0F0E00E94A803DF0115
:10041A000C943002E42DF0E0E05AFE4FE081E5BB97
:10042A00ACE2B1E00C943002EAE0F0E00E94AD03E5
:10043A000895F0E0E05AFE4FE081E5BBA5E0B0E0A8
:10044A000C9430020E94C903E0E0F0E060E271E43B
:10045A000E9425030895109639F080ED97E00197E0
:10046A00F1F7A8951197C9F70895552342F4503822
:10047A0011F4E0FF04C03196691F791F6BF050E850
:10048A00572711F45F93CAC05F3F31F0660F000C23
:10049A0057956795752F08955F9300200AF0CAC093
:1004AA00C3C050E8192E1522880F991F9527550F9A
:1004BA00879550E8072E0522660F771F7527550F77
:1004CA0067950895689401C0E8945F93F2DF7038E5
:1004DA0018F07F3F08F4A2C056E1571BAAF45195C1
:1004EA0058300EF4593030F0EFEFFFEF6FEF7FE73F
:1004FA0077F91AC077275523B9F0EE0FFF1F661F49
:10050A00771F5A95D1F710C07727583028F0EF2F68
:10051A00F62F672F5850F9CF552331F07695679506
:10052A00F795E7955A95D1F700200AF4DBD05F9149
:10053A000895689401C0E894309760407040B1F023
:10054A00002426F0772312F40094CCD0172E7EE1F3
:10055A00112032F07A95EE0FFF1F661F111CF9CF9A
:10056A00EF2FF62F612D5F938ADF5F9108954F93E6
:10057A00AF01FD01DA01AB01BC01CA01402D012C1A
:10058A00142E4F910895EA0FFB1F681F0895E095F6
:10059A00F0956095EF5FFF4F6F4F08955F9381DF8E
:1005AA00903849F150E81526703821F1572F591B18
:1005BA002BF112F4DCDFFACF583118F0AA27BB2747
:1005CA008827583028F0AB2FB82F88275850F9CFF2
:1005DA00552329F08695B795A7955A95D9F7502DA1
:1005EA00512572F0D0DF38F46795F795E795739542
:1005FA0013F420C0BCDF43DF5F910895D8F7FBCF27
:10060A00EA1BFB0B680B51F010F40094C0DF662361
:10061A0092F3EE0FFF1F661F7A95CBF7EE27FF279F
:10062A00662777275F910895EFEFFFEF6FE77FEF78
:10063A005F910895EFEFFFEF6FE77FE75F9108950E
:10064A005F932FDF703851F3903841F301240894F7
:10065A00791F23F41CF300203AF3ECCF0F921F9377
:10066A002F933F934F93112722279927689FA00121
:10067A008F9F302D410D591F6B9F300D411D591F02
:10068A008E9F27D0BF9F25D06A9F23D0BE9F1DD0A3
:10069A00AF9F1BD0AE9F110D291F391F491F591F2C
:1006AA00E32FF42F652F522F4F913F912F911F91D6
:1006BA000F9066232AF0550FEE1FFF1F661F02C018
:1006CA0073954BF2D2DE5F910895100D211D391FEB
:1006DA0002C0200D311D491F591F0895F195E1955A
:1006EA00F0400895F09560957095E195FF4F6F4F32
:1006FA007F4F0895EE230E2EEA2F19F0EE0F0A947B
:10070A00E9F70895F595E795F595E795F595E79550
:10071A00F595E79508958B2F880F880B982F0895E4
:10072A000024112490E1AA0FBB1F001C111C0E1AF1
:10073A001F0A18F40E0E1F1E01C0A1609A9599F7A0
:10074A00FD01D001089512D0EBDF0EF4C7DF089542
:10075A00E894B7FF04C0A095B09511966894F7FD88
:10076A00BDDFDEDFFD010EF4B9DF0895E894F7FF7F
:10077A0002C0B4DF6894B7FF06C0A095B095119681
:10078A0000F8039400FA0895A881B9818A819B81AF
:10079A0008959A938A93BA93AA930895689401C084
:1007AA00E89401D0C9DE182E862F612D192E972FB5
:1007BA00712D1B2EBF2FF12D1A2EAE2FE12D08956C
:00000001FF
