:060000000C9433000C9487
:1000060000000C9400000C9400000C9400000C946A
:1000160000000C9400000C9400000C9400000C945A
:1000260000000C9400000C9400000C9400000C944A
:1000360000000C9400000C9400000C9400000C943A
:1000460000000C9400000C9400000C9400003F0685
:100056005B4F666D7D077F6F0A00600154000000EC
:10006600F894EE27ECBBF1E0FBBFEBBFE5BF8DE0FC
:10007600A2E0BB27ED938A95E9F780E094E0A0E63D
:10008600ED930197E9F7EEE5F0E0859195910097FC
:1000960061F0A591B59105901590BF01F00105900D
:1000A6000D920197E1F7FB01F0CFEFE5EDBFE4E03C
:1000B600EEBFC0E6D1E00C940701B5D0B4D0B3D002
:1000C600EFEFE8BBA4EFB1E00E948901E0E00FC0CA
:1000D600E1E0B5D0E2E0B3D0E4E0B1D0E8E0AFD003
:1000E600E0E1ADD0E0E2ABD0E0E4A9D0E0E8E8BBE7
:1000F600089549B2552448BA0895E0E0E2BBE0917C
:100106006901A2D0E09168019FD0E09167019CD07F
:10011600E091660199D0E091650196D0E091640185
:1001260093D0E091630190D0E09162018DD0E0918F
:1001360061018AD0E091600187D0089549B25524C3
:10014600EFEFFFEFE415F505A1F083D09924E5E084
:100156009E1618F49ED09394FACFE0916A01E0308F
:1001660011F4CCD005C0E0916A01E250E0936A0137
:10017600E7CF089549B25524EFEFFFEFE415F505F3
:1001860009F441C060B2772464D0F301E07819F431
:10019600E0E0E0936D01F301E07419F4E0E0E09330
:1001A6006C01F301E07219F4E0E0E0936B01F301F6
:1001B600E07119F4E0E0E0936A01A0916D01E4E6D4
:1001C600EA9FB001A0916C01EAE0EA9FF001DB0131
:1001D600AE0FBF1FE0916B01F0E0EA0FFB1F2F018E
:1001E6009924E5E09E1618F454D09394FACFE09142
:1001F6006A01E03011F482D005C0E0916A01E25054
:10020600E0936A01B9CF0895EFEFE7BBE4BBEFE0F7
:10021600E1BBE0E0EABB51DF5BDF6FDF6ADF8EDF69
:10022600A9DFFCCFFFCFEFEFE8BBA4EFB1E00E9460
:100236008901E0E0E8BBA4EFB1E00C948901E8BBDA
:10024600A4E0B1E00C948901E5BBA8EEB3E00C9400
:100256008901D201EAE0F0E00E94AF01E0936B0170
:10026600D201EAE0F0E00E94AA01DF01EAE0F0E054
:100276000E94AF01E0936C01D201E4E6F0E00E9437
:10028600AA01DF01EAE0F0E00E94AF01E0936D0110
:100296000895EEE0E2BBE0916D01F0E0E05AFE4F1A
:1002A600E081E5BBA5E0B0E00E948901EDE0E2BB9C
:1002B600E0916C01F0E0E05AFE4FE081E5BBA5E07D
:1002C600B0E00E948901EBE0E2BBE0916B01F0E057
:1002D600E05AFE4FE081E068E5BBA5E0B0E00E9491
:1002E6008901E7E0E2BBE0916A01F0E0E05AFE4FE7
:1002F600E081E5BBA5E0B0E00C948901E8E0E0937D
:100306006A01F20131972F0131960895109639F05E
:1003160080ED97E00197F1F7A8951197C9F7089531
:10032600F195E195F04008950024112490E1AA0F7B
:10033600BB1F001C111C0E1A1F0A18F40E0E1F1EDE
:1003460001C0A1609A9599F7FD01D001089512D0D8
:10035600EBDF0EF4E5DF0895E894B7FF04C0A0953F
:10036600B09511966894F7FDDBDFDEDFFD010EF434
:10037600D7DF0895E894F7FF02C0D2DF6894B7FF8D
:1003860006C0A095B095119600F8039400FA08955A
:00000001FF
