:040000000C948600D6
:100004000C9400000C9400000C9400000C9400006C
:100014000C9400000C9400000C9400000C9400005C
:100024000C9400000C9400000C9400000C9400004C
:100034000C9400000C94B9000C9400000C94000083
:100044000C9400000C9400000C9400000C9400002C
:100054001027E80364000A000100001000011000EA
:1000640001006001202020202020202020202000CA
:100074007175657374696F6E20313A002564206D63
:10008400762020007175657374696F6E20320025C7
:1000940064206D7620202020202020202020202075
:1000A4002020002564206D763A206368616E6765C0
:1000B4006420007175657374696F6E2033203A2073
:1000C4000A002564205F2025642020200000010010
:1000D4002D4E414E00494E46000080C002000400EF
:1000E40066000C00600168000C006C0174000B00D9
:1000F400780188000F008301B7000100B501D20028
:100104000200B901DE000000F894EE27ECBBF1E038
:10011400FBBFEBBFE5BF8DE0A2E0BB27ED938A9563
:10012400E9F780E094E0A0E6ED930197E9F7E0EECB
:10013400F0E085919591009761F0A591B5910590B6
:100144001590BF01F00105900D920197E1F7FB01B5
:10015400F0CFEFE5EDBFE4E0EEBFC0E6D1E00C94F4
:10016400B3005AD05FD082D089D0E5D0FFCF8A9334
:10017400AA93BA93EA93FA93EFB7EA93E091B4019E
:10018400A4EAB1E0F0E0EE0FFF1FAE0FBF1FE4B131
:10019400F5B1ED93FC93A091B401AF5FA093B401CA
:1001A400A83018F0E0E0E093B401E091B401E05C21
:1001B400E7B98BE18A95F1F7369AE991EFBFF991A6
:1001C400E991B991A99189911895AA93E881E0647C
:1001D400E7B98BE18A95F1F7369A349BFECF349ACE
:1001E400E4B1F5B10C944C04E0E0EABBEBBBE4E011
:1001F400E7BBE0E0E8BBEFEFE4BBE0E0E5BBE1BB7D
:10020400E2BB0895E0E4E7B9E3EAE6B9E0E0E0BF81
:10021400E9BFE5BFE4BF0895E7DFF4DFA0E10E9492
:100224001F040895ACE6B1E00E940E04662477240E
:10023400E8E0F0E06E167F06C4F40E944E04A62D9A
:10024400C4DF0E9453040E946F04EA0FFB1F8082E4
:1002540091825A924A92E0E8F0E00E9475040E946A
:100264008104F30131963F01E3CF0895E0E4E7B957
:10027400EBEEE6B9E0E0E0BF789408950E94E00375
:10028400A8E7B1E00E940E0466247724E8E0F0E0D9
:100294006E167F060CF04EC00E944E04F301A4EAD1
:1002A400B1E0EE0FFF1F0E9488040E9453045A928B
:1002B4004A92E3E9F0E00E9475040E946F040E94F0
:1002C4008804DF01F401EA1BFB0BE093A201F09325
:1002D400A301A091A301AA2332F40E947606E0931D
:1002E400A201F093A3010E946F040E9488040E945B
:1002F4008D04DF01CB01E0E0F0E060EA71E40E94EC
:100304000D06DF01CB01E091A201F091A3010E944F
:100314008D040E94520611F008F006C05A924A92C7
:10032400E7EAF0E00E9475040E948104F30131962B
:100334003F01ACCF08950E94E003E5E6E3BFE0E0AF
:10034400E2BFE1E0ECBFA3E8B1E00E940E04E0915B
:10035400A401F091A501662777270E943C05DF01DF
:10036400CB01E0E0F0EC6FE774E40E940D06A0E03E
:10037400B0E084EB92E40E94BF05A0E0B0E080EA24
:1003840090E40E946F050E9405055F010E948D04A0
:10039400A3E3B3E383E290E40E94BF050E94050552
:1003A4006F010E944E045A924A92E6ECF0E0FA93EE
:1003B400EA93F5010E9482060E948F06F6010E94CC
:1003C40082060E948F0688E00E9462032C96D20166
:1003D4000E940E04CCBEBBCFBA93AA931A930A937D
:1003E400AA81BB8112960E948706309759F1AA818F
:1003F400BB8114960E9487068F01309761F002300A
:10040400E0E01E0798F0F80131978F01AA81BB81C3
:100414001496ED93FC93AA81BB811296ED91FD9104
:100424003196FE93EE933197AC81A083AA81BB8170
:100434000E948706FF232AF0ED91FD913196FE93E9
:10044400EE9306C0AA81BB81EFEFFFEFED93FC931F
:100454001981088125960895BA93AA9326970E9434
:10046400940610E0AC85BD85E0E0F0E0ED93FC93EC
:10047400EA89FB893196EA8BFB8B3197E4912E2F25
:10048400E03009F415C1E12FE03039F4253211F4DC
:1004940011E002C00E9492040AC1E130A9F425329D
:1004A40019F40E94920402C112E040E000E02D32EF
:1004B40011F401E0FCC02B3211F44BE2F8C02032FD
:1004C40011F440E2F4C002C0E23039F450E013E029
:1004D400203311F40068EBC003C0E33009F0E7C037
:1004E400203310F02A3308F007C0AAE05A9F502D99
:1004F400E22FE0535E0FDBC0E22FE33649F40E94A3
:100504009904E889F989A481AA930E949F04CEC022
:10051400E33741F40E9499040E94A5040E949603C3
:100524001E2F0AC0E03761F40E9499040E94A504BA
:100534000E94A2031E2F086002600F7730E034C0CF
:10054400E43611F0E93611F4046002C0E53731F401
:10055400E4E5F0E0EE83FF8315E00CC0E83511F428
:10056400086003C0E83709F0A1C0EEE5F0E0EE83CF
:10057400FF8314E002FF14C00E9499040E94AF0498
:10058400AB85AA233AF4EA85FB850E947606EA87BE
:10059400FB874DE2403011F01F5F01C00B7F04C0A8
:1005A4000E9499040E94AF0400FD11C0151778F44D
:1005B40007FF08C002FF04C00B7F242F115001C0A5
:1005C40020E301C020E20E9492045150EFCF312F6A
:1005D40001FF17C03030A1F003FF06C0EE81FF8198
:1005E4002591EE83FF8305C0AE81BF812D91AE833B
:1005F400BF830E949204503009F051503150EACF29
:100604004BC020E3EE81FF810E948B06E887F987C7
:10061400EE81FF813296EE83FF83E885F985AA8512
:10062400BB85AE17BF0750F02F5FA885B985EA8553
:10063400FB85EA1BFB0BEA87FB87EFCF2A3328F005
:1006440003FF02C0295F01C0295D04FD1AC02133E4
:1006540020F4A885B985119709F409C0531710F03F
:1006640000FF01C013C020E207FF0BC020E30061BC
:1006740002FF07C00B7F4A930E949F04503009F089
:1006840051500E949204503009F051503150A885C5
:10069400B985129708F0B5CF00FF08C0503031F08B
:1006A4005150E0E2EA930E949F04F8CF10E0E0CEBC
:1006B400AC85BD850E9487060E949B0664960895BA
:1006C400FF92F82E26970E9496060E94B704309750
:1006D40019F4EFEFFFEF23C0DE0116960E947206B5
:1006E4008D010E94B704EE83FF83E0E0E887E98789
:1006F400DE011A960E9472060E948706FA93EA9314
:100704001A930A93EEEEF1E0FA93EA93DE011A9655
:10071400A3DE9F01AE81BF81E0E0EC93F9010E946A
:100724009D062A96FF900895BA93AA93A991B99128
:10073400EE27FF276D91662311F03196FBCF0895C4
:10074400BA93AA93AA27BB27E991F99105900020AF
:1007540011F01196FBCFFD010895AA93E5B3EF7054
:10076400AE2FE881E07FEA2BE5BB8DE08A95F1F7B7
:10077400AA9A8DE08A95F1F7AA988DE08A95F1F707
:1007840089C0AA93A881E9DFE881E295E883A8817A
:10079400E4DF85E88A95F1F77DC0AA93E881F0E06B
:1007A400E754FE4FE081A981AE0FEBDFE981E093CE
:1007B400BD01E881E093BE0122960895A2E00E9463
:1007C400BE04ACE0DEDFA1E00E94BE04E0E0E09302
:1007D400BE01E093BD010895AA93A881AA3031F027
:1007E400E091BF01A091BD01AE1760F0E0E0EA9393
:1007F400A091BE01AF5FA093BE01CFDFA881AA3054
:1008040009F448C0E091BD01EF5FE093BD01A89AEF
:10081400A881B7DFA8983EC0BA93AA931A93A98176
:10082400BA81ED91A983BA831E2FE03019F0A12F6C
:10083400D3DFF5CF188123960895AA93E4B3E06F2C
:10084400E4BBA29AA09AA19AAA98A898A998E88128
:10085400E093BF01E058E093BB01E881E054E093EA
:10086400BC01A4E1B0E00E94CC040E94C4040E9434
:10087400C4040E94C404A0E270DF88EC90E00197F5
:10088400F1F7A8E27EDFA4E07CDFA5E87ADFA6E04A
:1008940078DF94DF21960895E0E0EA93A1E00C94D8
:1008A400CF03662777270E943C05DF01CB01E0E0F8
:1008B400F0E060E874E40E940D06A0E0B0E080EA95
:1008C40090E40E94BF05A0E0B0E08AE794E40E94AF
:1008D400BF050E9405054F010895F301A2E9B1E0A7
:1008E400EE0FFF1F0895FA93EA93F4010E94820623
:1008F4000E948F0684E00E94620328960895D20124
:100904000E940E04A8EEB3E00C94CC04AE0FBF1FFB
:100914000E94870608950E9482060E943C0508955D
:100924002A93AD85BE85EF85F88909950895E889F0
:10093400F9893497E88BF98B0895AD85BE85EF85E9
:10094400F88909950895A889B98914960E9487069B
:10095400EE83FF83AE81BF810895A889B989149677
:100964000E948706EA87FB870895DE011C960E9491
:1009740072060E94870608950E94C303A3E0B0E0B4
:100984000C94CC04A0E30E94AF0388EC90E00197A0
:10099400F1F70895109639F080ED97E00197F1F79B
:1009A400A8951197C9F70895552342F4503811F4C6
:1009B400E0FF04C03196691F791F6BF050E8572798
:1009C40011F45F93C8C05F3F31F0660F000C579578
:1009D4006795752F08955F9300200AF0C8C0C1C0C1
:1009E40050E8192E1522880F991F9527550F8795C2
:1009F40050E8072E0522660F771F7527550F679558
:100A04000895689401C0E8945F93F2DF703818F099
:100A14007F3F08F4A0C056E1571BAAF45195583003
:100A24000EF4593030F0EFEFFFEF6FEF7FE777F917
:100A34001AC077275523B9F0EE0FFF1F661F771FE3
:100A44005A95D1F710C07727583028F0EF2FF62F9A
:100A5400672F5850F9CF552331F076956795F79560
:100A6400E7955A95D1F700200AF442D15F91089591
:100A7400689401C0E894309760407040B1F000245D
:100A840026F0772312F4009433D1172E7EE111203F
:100A940032F07A95EE0FFF1F661F111CF9CFEF2F6E
:100AA400F62F612D5F938ADF5F9108954F93AF0115
:100AB400FD01DA01AB01BC01CA01402D012C142E49
:100AC4004F910895EA0FFB1F681F0895E095F09574
:100AD4006095EF5FFF4F6F4F08955F9381DF90380C
:100AE40039F1703821F1572F591B2BF112F4DEDF45
:100AF400FACF583118F0AA27BB278827583028F096
:100B0400AB2FB82F88275850F9CF552329F0869555
:100B1400B795A7955A95D9F7502D512572F0D2DF84
:100B240038F46795F795E795739513F420C0BEDF05
:100B340045DF5F910895D8F7FBCFEA1BFB0B680BE9
:100B440051F010F40094C2DF662392F3EE0FFF1FFE
:100B5400661F7A95CBF7EE27FF27662777275F91E5
:100B64000895EFEFFFEF6FE77FEF5F910895EFEFE9
:100B7400FFEF6FE77FE75F9108955F9331DF703890
:100B840051F3903841F301240894791F23F41CF3A2
:100B940000203AF3ECCF0F921F932F933F934F9380
:100BA400112722279927689FA0018F9F302D410D7F
:100BB400591F6B9F300D411D591F8E9F27D0BF9F1A
:100BC40025D06A9F23D0BE9F1DD0AF9F1BD0AE9F60
:100BD400110D291F391F491F591FE32FF42F652FAA
:100BE400522F4F913F912F911F910F9066232AF01E
:100BF400550FEE1FFF1F661F02C073954BF2D4DE24
:100C04005F910895100D211D391F02C0200D311D63
:100C1400491F591F08955F93E3DE703821F41120B2
:100C24000AF49FCFA4CF903809F495CF01240894F7
:100C3400970B1BF4D4F30020F3CF792F1F932F933A
:100C44003F934F93112411272227332744275527F5
:100C540090E2AE17BF078607410730F0AE1BBF0B0B
:100C6400860B410B089401C08894551F221F331F23
:100C7400111CAA1FBB1F881F441F9A9551F7F90125
:100C8400612D4F913F912F911F91662332F0550FA3
:100C9400EE1FFF1F661F7A9543F286DE5F9108956B
:100CA40099239AF0772342F0971748F029F4AE1766
:100CB400BF07860720F031F098948894089598949B
:100CC400089408951894889408957723C2F7971781
:100CD40098F3A9F7EA17FB07680788F399F3ECCFB1
:100CE4000024AF0DB01D0895F195E195F0400895ED
:100CF400F09560957095E195FF4F6F4F7F4F089584
:100D04006F2F660F660B762F0895ED91FC91119766
:100D140008950590F491E02D08957A936A93FA93D7
:100D2400EA9308955A934A933A932A931A930A9307
:100D340008955D814C813B812A8119810881089540
:00000001FF
