:060000000C9478000C9442
:1000060036010C9459010C9400000C9400000C94D9
:1000160000000C9400000C9400000C9479010C94E0
:1000260000000C9400000C9400000C9400000C944A
:1000360000000C9400000C9400000C9400000C943A
:1000460000000C9400000C9400000C940000102793
:10005600E80364000A00010000100001100001001E
:1000660000000000000000000A006001710130304D
:100076003A30303A30303A303020202020200043C9
:10008600453A3030303020202020200043453A3198
:10009600300043453A46554C4C2020202020004352
:1000A600453A256420202020200025643A25643A1C
:1000B60025643A25642020202020200080C00A00E4
:1000C60004006600110060017400020084017000E3
:1000D6000D007101850002008601720006007E0196
:1000E600920002008901C2000000F894EE27ECBBE2
:1000F600F1E0FBBFEBBFE5BF8DE0A2E0BB27ED93D0
:100106008A95E9F780E094E0A0E6ED930197E9F798
:10011600E4ECF0E085919591009761F0A591B59199
:1001260005901590BF01F00105900D920197E1F73A
:10013600FB01F0CFEFE5EDBFE4E0EEBFC0E6D1E0B6
:100146000C94A50078943BD0FFCFE0E0EABBEBBB74
:10015600E7BBE8BBEFEFE4BBE0E0E5BBE3EFE1BB09
:10016600E0E0E2BB0895E0E0E3BFE2BFECBFEFBD35
:10017600E2E0EEBDE8EDEDBDE0EFECBDE0E0E7BDB1
:10018600E6BDEBBDEABDE9BDE8BDE2BDE5BDE4BD4A
:10019600E3BDE4E0E9BF0895EBB7E06CEBBFEFE049
:1001A600E5BFE0E0E4BFE0ECEABFE0E0EAB9E0E8A2
:1001B600E8B9E0E0E0BFE6B9EDB9E6BF0895C5DF0E
:1001C600D2DFEADFA0E13ED1E0E0E0938801EA93E6
:1001D600A1E0E8D0AEE7B1E024D10895E3E6F0E08F
:1001E600EA15FB0521F0F50131965F011BC0AA2433
:1001F600BB24EBE3F0E0E815F90521F0F4013196B4
:100206004F0110C088249924EBE3F0E0E615F705CA
:1002160021F0F30131963F0105C066247724F201EF
:1002260031962F010895AA93A881A13029F40E943E
:100236001504E8E9F0E004C00E941504E5EAF0E0E0
:10024600FA93EA93F6010E941C0484E00E94C80314
:100256002896E0E0EA93A1E0A5D0A0918601B091AE
:100266008701DFD01CC1EA93FA93EFB7EA93B499FA
:1002760002C0B59901C003C0E1E0E0938801B49BD8
:1002860002C0B59B01C00DC0E0918801E03031F499
:10029600E0E0F0E02F013F014F015F01E0E0E09375
:1002A6008801E991EFBFF991E99118950E9421041F
:1002B600B2990FC000240C140D0454F4F6013197C2
:1002C6006F010C2C0D2811F4A1E001C0A0E0ABDFFA
:1002D6000CC0B3990AC0EAE0F0E0CE16DF061CF4C3
:1002E600F60131966F01A0E09EDF2EC00E94210428
:1002F600E8EDEDBDE0EFECBDA0918801A13009F479
:100306006DDFE0918401F0918501FA93EA93E0EBC9
:10031600F0E0FA93EA93F2010E941C04F3010E94B2
:100326001C04F4010E941C04F5010E941C0480E1D7
:100336000E94C8036496E0E0EA93A0E033D0A0915F
:100346008401B09185016DD0E991EFBFF991E991F2
:10035600B991A9919991899179916991F990199099
:1003660009901895AA93E5B3EF70AE2FE881E07F68
:10037600EA2BE5BB8DE08A95F1F7AA9A8DE08A957E
:10038600F1F7AA988DE08A95F1F789C0AA93A8811A
:10039600E9DFE881E295E883A881E4DF85E88A95CC
:1003A600F1F77DC0AA93E881F0E0E757FE4FE081C0
:1003B600A981AE0FEBDFE981E0938D01E881E0933F
:1003C6008E0122960895A2E00E942F04ACE0DEDFA3
:1003D600A1E00E942F04E0E0E0938E01E0938D01FE
:1003E6000895AA93A881AA3031F0E0918F01A091D7
:1003F6008D01AE1760F0E0E0EA93A0918E01AF5F49
:10040600A0938E01CFDFA881AA3009F448C0E091FD
:100416008D01EF5FE0938D01A89AA881B7DFA898B8
:100426003EC0BA93AA931A93A981BA81ED91A98382
:10043600BA831E2FE03019F0A12FD3DFF5CF188134
:1004460023960895AA93E4B3E06FE4BBA29AA09A18
:10045600A19AAA98A898A998E881E0938F01E058F4
:10046600E0938B01E881E054E0938C01A4E1B0E0D5
:100476000E9469040E9435040E9435040E943504D6
:10048600A0E270DF88EC90E00197F1F7A8E27EDF4A
:10049600A4E07CDFA5E87ADFA6E078DF94DF21968A
:1004A6000895BA93AA931A930A93AA81BB811296C6
:1004B6000E948004309759F1AA81BB8114960E944C
:1004C60080048F01309761F00230E0E01E0798F05B
:1004D600F80131978F01AA81BB811496ED93FC93A5
:1004E600AA81BB811296ED91FD913196FE93EE9312
:1004F6003197AC81A083AA81BB810E948004FF232F
:100506002AF0ED91FD913196FE93EE9306C0AA81F5
:10051600BB81EFEFFFEFED93FC93198108812596E0
:100526000895BA93AA9326970E948D0410E0AC858D
:10053600BD85E0E0F0E0ED93FC93EA89FB89319616
:10054600EA8BFB8B3197E4912E2FE03009F415C12D
:10055600E12FE03039F4253211F411E002C00E9497
:100566003D040AC1E130A9F4253219F40E943D0484
:1005760002C112E040E000E02D3211F401E0FCC0BF
:100586002B3211F44BE2F8C0203211F440E2F4C0F1
:1005960002C0E23039F450E013E0203311F4006871
:1005A600EBC003C0E33009F0E7C0203310F02A3374
:1005B60008F007C0AAE05A9F502DE22FE0535E0FC5
:1005C600DBC0E22FE33649F40E944404E889F98946
:1005D600A481AA930E944A04CEC0E33741F40E9444
:1005E60044040E9450040E94FC031E2F0AC0E037F8
:1005F60061F40E9444040E9450040E9408041E2FC5
:10060600086002600F7730E034C0E43611F0E93656
:1006160011F4046002C0E53731F4E4E5F0E0EE835E
:10062600FF8315E00CC0E83511F4086003C0E83715
:1006360009F0A1C0EEE5F0E0EE83FF8314E002FFCF
:1006460014C00E9444040E945A04AB85AA233AF4BB
:10065600EA85FB850E947704EA87FB874DE24030F6
:1006660011F01F5F01C00B7F04C00E9444040E946A
:100676005A0400FD11C0151778F407FF08C002FFE1
:1006860004C00B7F242F115001C020E301C020E2DB
:100696000E943D045150EFCF312F01FF17C030307B
:1006A600A1F003FF06C0EE81FF812591EE83FF8353
:1006B60005C0AE81BF812D91AE83BF830E943D04EC
:1006C600503009F051503150EACF4BC020E3EE8153
:1006D600FF810E948404E887F987EE81FF813296C4
:1006E600EE83FF83E885F985AA85BB85AE17BF072C
:1006F60050F02F5FA885B985EA85FB85EA1BFB0BC1
:10070600EA87FB87EFCF2A3328F003FF02C0295F71
:1007160001C0295D04FD1AC0213320F4A885B985DE
:10072600119709F409C0531710F000FF01C013C058
:1007360020E207FF0BC020E3006102FF07C00B7F2A
:100746004A930E944A04503009F051500E943D04D9
:10075600503009F051503150A885B985129708F0EC
:10076600B5CF00FF08C0503031F05150E0E2EA93B7
:100776000E944A04F8CF10E0E0CEAC85BD850E9409
:1007860080040E94940464960895FF92F82E26979A
:100796000E948F040E946204309719F4EFEFFFEF76
:1007A60023C0DE0116960E9473048D010E94620426
:1007B600EE83FF83E0E0E887E987DE011A960E9470
:1007C60073040E948004FA93EA931A930A93E4E569
:1007D600F2E0FA93EA93DE011A96A3DE9F01AE8158
:1007E600BF81E0E0EC93F9010E9496042A96FF90FF
:1007F6000895BA93AA93A991B991EE27FF276D910F
:10080600662311F03196FBCF0895BA93AA93AA27CF
:10081600BB27E991F9910590002011F01196FBCFC5
:10082600FD010895E0918601F0918701FA93EA931C
:1008360008950E947B040E94880408950A921A92E1
:10084600FA926A937A938A939A93AA93BA93EA93BB
:10085600FA93EFB7EA9308950E94C901A3E0B0E0C6
:100866000C946904A0E30E94B50188EC90E001971E
:10087600F1F708952A93AD85BE85EF85F889099528
:100886000895E889F9893497E88BF98B0895AD8541
:10089600BE85EF85F88909950895A889B9891496C2
:1008A6000E948004EE83FF83AE81BF810895A889EC
:1008B600B98914960E948004EA87FB870895DE01B1
:1008C6001C960E9473040E9480040895109639F0C5
:1008D60080ED97E00197F1F7A8951197C9F708956C
:1008E6000024AF0DB01D0895F195E195F0400895EF
:1008F6006F2F660F660B762F0895ED91FC91119779
:1009060008950590F491E02D08957A936A93FA93E9
:10091600EA9308955A934A933A932A931A930A9319
:1009260008955D814C813B812A8119810881089552
:00000001FF
